{
	"Factory/DeployManager.sol": {
		"DeployManager": {
			"abi": [
				{
					"inputs": [],
					"stateMutability": "nonpayable",
					"type": "constructor"
				},
				{
					"inputs": [],
					"name": "ContractDoesNotRegistered",
					"type": "error"
				},
				{
					"inputs": [],
					"name": "ContractNotActive",
					"type": "error"
				},
				{
					"inputs": [],
					"name": "FailedDeployment",
					"type": "error"
				},
				{
					"inputs": [],
					"name": "InitializationFailed",
					"type": "error"
				},
				{
					"inputs": [
						{
							"internalType": "uint256",
							"name": "balance",
							"type": "uint256"
						},
						{
							"internalType": "uint256",
							"name": "needed",
							"type": "uint256"
						}
					],
					"name": "InsufficientBalance",
					"type": "error"
				},
				{
					"inputs": [],
					"name": "NotEnoughtFunds",
					"type": "error"
				},
				{
					"inputs": [
						{
							"internalType": "address",
							"name": "owner",
							"type": "address"
						}
					],
					"name": "OwnableInvalidOwner",
					"type": "error"
				},
				{
					"inputs": [
						{
							"internalType": "address",
							"name": "account",
							"type": "address"
						}
					],
					"name": "OwnableUnauthorizedAccount",
					"type": "error"
				},
				{
					"anonymous": false,
					"inputs": [
						{
							"indexed": false,
							"internalType": "address",
							"name": "_contractAddress",
							"type": "address"
						},
						{
							"indexed": false,
							"internalType": "uint256",
							"name": "_oldFee",
							"type": "uint256"
						},
						{
							"indexed": false,
							"internalType": "uint256",
							"name": "_newFee",
							"type": "uint256"
						},
						{
							"indexed": false,
							"internalType": "uint256",
							"name": "_timestamp",
							"type": "uint256"
						}
					],
					"name": "ContractFeeUpdated",
					"type": "event"
				},
				{
					"anonymous": false,
					"inputs": [
						{
							"indexed": false,
							"internalType": "address",
							"name": "_contractAddress",
							"type": "address"
						},
						{
							"indexed": false,
							"internalType": "bool",
							"name": "_isActive",
							"type": "bool"
						},
						{
							"indexed": false,
							"internalType": "uint256",
							"name": "_timestamp",
							"type": "uint256"
						}
					],
					"name": "ContractStatusUpdated",
					"type": "event"
				},
				{
					"anonymous": false,
					"inputs": [
						{
							"indexed": false,
							"internalType": "address",
							"name": "_contractAddress",
							"type": "address"
						},
						{
							"indexed": false,
							"internalType": "uint256",
							"name": "_fee",
							"type": "uint256"
						},
						{
							"indexed": false,
							"internalType": "bool",
							"name": "_isActive",
							"type": "bool"
						},
						{
							"indexed": false,
							"internalType": "uint256",
							"name": "_timestamp",
							"type": "uint256"
						}
					],
					"name": "NewContractAdded",
					"type": "event"
				},
				{
					"anonymous": false,
					"inputs": [
						{
							"indexed": false,
							"internalType": "address",
							"name": "_deployer",
							"type": "address"
						},
						{
							"indexed": false,
							"internalType": "address",
							"name": "_contractAddress",
							"type": "address"
						},
						{
							"indexed": false,
							"internalType": "uint256",
							"name": "_fee",
							"type": "uint256"
						},
						{
							"indexed": false,
							"internalType": "uint256",
							"name": "_timestamp",
							"type": "uint256"
						}
					],
					"name": "NewDeployment",
					"type": "event"
				},
				{
					"anonymous": false,
					"inputs": [
						{
							"indexed": true,
							"internalType": "address",
							"name": "previousOwner",
							"type": "address"
						},
						{
							"indexed": true,
							"internalType": "address",
							"name": "newOwner",
							"type": "address"
						}
					],
					"name": "OwnershipTransferred",
					"type": "event"
				},
				{
					"inputs": [
						{
							"internalType": "address",
							"name": "_address",
							"type": "address"
						}
					],
					"name": "activateContract",
					"outputs": [],
					"stateMutability": "nonpayable",
					"type": "function"
				},
				{
					"inputs": [
						{
							"internalType": "address",
							"name": "_contractAddress",
							"type": "address"
						},
						{
							"internalType": "uint256",
							"name": "_fee",
							"type": "uint256"
						},
						{
							"internalType": "bool",
							"name": "_isActive",
							"type": "bool"
						}
					],
					"name": "addNewContract",
					"outputs": [],
					"stateMutability": "nonpayable",
					"type": "function"
				},
				{
					"inputs": [
						{
							"internalType": "address",
							"name": "",
							"type": "address"
						}
					],
					"name": "contractsData",
					"outputs": [
						{
							"internalType": "uint256",
							"name": "fee",
							"type": "uint256"
						},
						{
							"internalType": "bool",
							"name": "isActive",
							"type": "bool"
						},
						{
							"internalType": "uint256",
							"name": "registredAt",
							"type": "uint256"
						}
					],
					"stateMutability": "view",
					"type": "function"
				},
				{
					"inputs": [
						{
							"internalType": "address",
							"name": "_address",
							"type": "address"
						}
					],
					"name": "deactivateContract",
					"outputs": [],
					"stateMutability": "nonpayable",
					"type": "function"
				},
				{
					"inputs": [
						{
							"internalType": "address",
							"name": "_utilityContract",
							"type": "address"
						},
						{
							"internalType": "bytes",
							"name": "_initData",
							"type": "bytes"
						}
					],
					"name": "deploy",
					"outputs": [
						{
							"internalType": "address",
							"name": "",
							"type": "address"
						}
					],
					"stateMutability": "payable",
					"type": "function"
				},
				{
					"inputs": [
						{
							"internalType": "address",
							"name": "",
							"type": "address"
						},
						{
							"internalType": "uint256",
							"name": "",
							"type": "uint256"
						}
					],
					"name": "deployedContracts",
					"outputs": [
						{
							"internalType": "address",
							"name": "",
							"type": "address"
						}
					],
					"stateMutability": "view",
					"type": "function"
				},
				{
					"inputs": [],
					"name": "owner",
					"outputs": [
						{
							"internalType": "address",
							"name": "",
							"type": "address"
						}
					],
					"stateMutability": "view",
					"type": "function"
				},
				{
					"inputs": [],
					"name": "renounceOwnership",
					"outputs": [],
					"stateMutability": "nonpayable",
					"type": "function"
				},
				{
					"inputs": [
						{
							"internalType": "address",
							"name": "newOwner",
							"type": "address"
						}
					],
					"name": "transferOwnership",
					"outputs": [],
					"stateMutability": "nonpayable",
					"type": "function"
				},
				{
					"inputs": [
						{
							"internalType": "address",
							"name": "_contractAddress",
							"type": "address"
						},
						{
							"internalType": "uint256",
							"name": "_newFee",
							"type": "uint256"
						}
					],
					"name": "updateFee",
					"outputs": [],
					"stateMutability": "nonpayable",
					"type": "function"
				}
			],
			"devdoc": {
				"errors": {
					"FailedDeployment()": [
						{
							"details": "The deployment failed."
						}
					],
					"InsufficientBalance(uint256,uint256)": [
						{
							"details": "The ETH balance of the account is not enough to perform the operation."
						}
					],
					"OwnableInvalidOwner(address)": [
						{
							"details": "The owner is not a valid owner account. (eg. `address(0)`)"
						}
					],
					"OwnableUnauthorizedAccount(address)": [
						{
							"details": "The caller account is not authorized to perform an operation."
						}
					]
				},
				"kind": "dev",
				"methods": {
					"owner()": {
						"details": "Returns the address of the current owner."
					},
					"renounceOwnership()": {
						"details": "Leaves the contract without owner. It will not be possible to call `onlyOwner` functions. Can only be called by the current owner. NOTE: Renouncing ownership will leave the contract without an owner, thereby disabling any functionality that is only available to the owner."
					},
					"transferOwnership(address)": {
						"details": "Transfers ownership of the contract to a new account (`newOwner`). Can only be called by the current owner."
					}
				},
				"version": 1
			},
			"evm": {
				"assembly": "    /* \"Factory/DeployManager.sol\":196:3115  contract DeployManager is Ownable {... */\n  mstore(0x40, 0x80)\n    /* \"Factory/DeployManager.sol\":651:693  constructor() Ownable(msg.sender) {... */\n  callvalue\n  dup1\n  iszero\n  tag_1\n  jumpi\n  revert(0x00, 0x00)\ntag_1:\n  pop\n    /* \"Factory/DeployManager.sol\":673:683  msg.sender */\n  caller\n    /* \"@openzeppelin/contracts/access/Ownable.sol\":1297:1298  0 */\n  0x00\n    /* \"@openzeppelin/contracts/access/Ownable.sol\":1273:1299  initialOwner == address(0) */\n  0xffffffffffffffffffffffffffffffffffffffff\n  and\n    /* \"@openzeppelin/contracts/access/Ownable.sol\":1273:1285  initialOwner */\n  dup2\n    /* \"@openzeppelin/contracts/access/Ownable.sol\":1273:1299  initialOwner == address(0) */\n  0xffffffffffffffffffffffffffffffffffffffff\n  and\n  sub\n    /* \"@openzeppelin/contracts/access/Ownable.sol\":1269:1364  if (initialOwner == address(0)) {... */\n  tag_5\n  jumpi\n    /* \"@openzeppelin/contracts/access/Ownable.sol\":1350:1351  0 */\n  0x00\n    /* \"@openzeppelin/contracts/access/Ownable.sol\":1322:1353  OwnableInvalidOwner(address(0)) */\n  mload(0x40)\n  0x1e4fbdf700000000000000000000000000000000000000000000000000000000\n  dup2\n  mstore\n  0x04\n  add\n  tag_6\n  swap2\n  swap1\n  tag_7\n  jump\t// in\ntag_6:\n  mload(0x40)\n  dup1\n  swap2\n  sub\n  swap1\n  revert\n    /* \"@openzeppelin/contracts/access/Ownable.sol\":1269:1364  if (initialOwner == address(0)) {... */\ntag_5:\n    /* \"@openzeppelin/contracts/access/Ownable.sol\":1373:1405  _transferOwnership(initialOwner) */\n  tag_8\n    /* \"@openzeppelin/contracts/access/Ownable.sol\":1392:1404  initialOwner */\n  dup2\n    /* \"@openzeppelin/contracts/access/Ownable.sol\":1373:1391  _transferOwnership */\n  shl(0x20, tag_9)\n    /* \"@openzeppelin/contracts/access/Ownable.sol\":1373:1405  _transferOwnership(initialOwner) */\n  0x20\n  shr\n  jump\t// in\ntag_8:\n    /* \"@openzeppelin/contracts/access/Ownable.sol\":1225:1412  constructor(address initialOwner) {... */\n  pop\n    /* \"Factory/DeployManager.sol\":196:3115  contract DeployManager is Ownable {... */\n  jump(tag_11)\n    /* \"@openzeppelin/contracts/access/Ownable.sol\":2912:3099  function _transferOwnership(address newOwner) internal virtual {... */\ntag_9:\n    /* \"@openzeppelin/contracts/access/Ownable.sol\":2985:3001  address oldOwner */\n  0x00\n    /* \"@openzeppelin/contracts/access/Ownable.sol\":3004:3010  _owner */\n  0x00\n  0x00\n  swap1\n  sload\n  swap1\n  0x0100\n  exp\n  swap1\n  div\n  0xffffffffffffffffffffffffffffffffffffffff\n  and\n    /* \"@openzeppelin/contracts/access/Ownable.sol\":2985:3010  address oldOwner = _owner */\n  swap1\n  pop\n    /* \"@openzeppelin/contracts/access/Ownable.sol\":3029:3037  newOwner */\n  dup2\n    /* \"@openzeppelin/contracts/access/Ownable.sol\":3020:3026  _owner */\n  0x00\n  0x00\n    /* \"@openzeppelin/contracts/access/Ownable.sol\":3020:3037  _owner = newOwner */\n  0x0100\n  exp\n  dup2\n  sload\n  dup2\n  0xffffffffffffffffffffffffffffffffffffffff\n  mul\n  not\n  and\n  swap1\n  dup4\n  0xffffffffffffffffffffffffffffffffffffffff\n  and\n  mul\n  or\n  swap1\n  sstore\n  pop\n    /* \"@openzeppelin/contracts/access/Ownable.sol\":3083:3091  newOwner */\n  dup2\n    /* \"@openzeppelin/contracts/access/Ownable.sol\":3052:3092  OwnershipTransferred(oldOwner, newOwner) */\n  0xffffffffffffffffffffffffffffffffffffffff\n  and\n    /* \"@openzeppelin/contracts/access/Ownable.sol\":3073:3081  oldOwner */\n  dup2\n    /* \"@openzeppelin/contracts/access/Ownable.sol\":3052:3092  OwnershipTransferred(oldOwner, newOwner) */\n  0xffffffffffffffffffffffffffffffffffffffff\n  and\n  0x8be0079c531659141344cd1fd0a4f28419497f9722a3daafe3b4186f6b6457e0\n  mload(0x40)\n  mload(0x40)\n  dup1\n  swap2\n  sub\n  swap1\n  log3\n    /* \"@openzeppelin/contracts/access/Ownable.sol\":2975:3099  {... */\n  pop\n    /* \"@openzeppelin/contracts/access/Ownable.sol\":2912:3099  function _transferOwnership(address newOwner) internal virtual {... */\n  pop\n  jump\t// out\n    /* \"#utility.yul\":7:133   */\ntag_13:\n    /* \"#utility.yul\":44:51   */\n  0x00\n    /* \"#utility.yul\":84:126   */\n  0xffffffffffffffffffffffffffffffffffffffff\n    /* \"#utility.yul\":77:82   */\n  dup3\n    /* \"#utility.yul\":73:127   */\n  and\n    /* \"#utility.yul\":62:127   */\n  swap1\n  pop\n    /* \"#utility.yul\":7:133   */\n  swap2\n  swap1\n  pop\n  jump\t// out\n    /* \"#utility.yul\":139:235   */\ntag_14:\n    /* \"#utility.yul\":176:183   */\n  0x00\n    /* \"#utility.yul\":205:229   */\n  tag_19\n    /* \"#utility.yul\":223:228   */\n  dup3\n    /* \"#utility.yul\":205:229   */\n  tag_13\n  jump\t// in\ntag_19:\n    /* \"#utility.yul\":194:229   */\n  swap1\n  pop\n    /* \"#utility.yul\":139:235   */\n  swap2\n  swap1\n  pop\n  jump\t// out\n    /* \"#utility.yul\":241:359   */\ntag_15:\n    /* \"#utility.yul\":328:352   */\n  tag_21\n    /* \"#utility.yul\":346:351   */\n  dup2\n    /* \"#utility.yul\":328:352   */\n  tag_14\n  jump\t// in\ntag_21:\n    /* \"#utility.yul\":323:326   */\n  dup3\n    /* \"#utility.yul\":316:353   */\n  mstore\n    /* \"#utility.yul\":241:359   */\n  pop\n  pop\n  jump\t// out\n    /* \"#utility.yul\":365:587   */\ntag_7:\n    /* \"#utility.yul\":458:462   */\n  0x00\n    /* \"#utility.yul\":496:498   */\n  0x20\n    /* \"#utility.yul\":485:494   */\n  dup3\n    /* \"#utility.yul\":481:499   */\n  add\n    /* \"#utility.yul\":473:499   */\n  swap1\n  pop\n    /* \"#utility.yul\":509:580   */\n  tag_23\n    /* \"#utility.yul\":577:578   */\n  0x00\n    /* \"#utility.yul\":566:575   */\n  dup4\n    /* \"#utility.yul\":562:579   */\n  add\n    /* \"#utility.yul\":553:559   */\n  dup5\n    /* \"#utility.yul\":509:580   */\n  tag_15\n  jump\t// in\ntag_23:\n    /* \"#utility.yul\":365:587   */\n  swap3\n  swap2\n  pop\n  pop\n  jump\t// out\n    /* \"Factory/DeployManager.sol\":196:3115  contract DeployManager is Ownable {... */\ntag_11:\n  dataSize(sub_0)\n  dup1\n  dataOffset(sub_0)\n  0x00\n  codecopy\n  0x00\n  return\nstop\n\nsub_0: assembly {\n        /* \"Factory/DeployManager.sol\":196:3115  contract DeployManager is Ownable {... */\n      mstore(0x40, 0x80)\n      jumpi(tag_1, lt(calldatasize, 0x04))\n      shr(0xe0, calldataload(0x00))\n      dup1\n      0x715018a6\n      gt\n      tag_12\n      jumpi\n      dup1\n      0x715018a6\n      eq\n      tag_7\n      jumpi\n      dup1\n      0x8da5cb5b\n      eq\n      tag_8\n      jumpi\n      dup1\n      0x94be7197\n      eq\n      tag_9\n      jumpi\n      dup1\n      0xe97fac05\n      eq\n      tag_10\n      jumpi\n      dup1\n      0xf2fde38b\n      eq\n      tag_11\n      jumpi\n      jump(tag_1)\n    tag_12:\n      dup1\n      0x0d159b3f\n      eq\n      tag_2\n      jumpi\n      dup1\n      0x31a76535\n      eq\n      tag_3\n      jumpi\n      dup1\n      0x45967555\n      eq\n      tag_4\n      jumpi\n      dup1\n      0x4d580453\n      eq\n      tag_5\n      jumpi\n      dup1\n      0x670cec37\n      eq\n      tag_6\n      jumpi\n    tag_1:\n      revert(0x00, 0x00)\n        /* \"Factory/DeployManager.sol\":1781:2137  function addNewContract(address _contractAddress, uint256 _fee, bool _isActive) external onlyOwner {... */\n    tag_2:\n      callvalue\n      dup1\n      iszero\n      tag_13\n      jumpi\n      revert(0x00, 0x00)\n    tag_13:\n      pop\n      tag_14\n      0x04\n      dup1\n      calldatasize\n      sub\n      dup2\n      add\n      swap1\n      tag_15\n      swap2\n      swap1\n      tag_16\n      jump\t// in\n    tag_15:\n      tag_17\n      jump\t// in\n    tag_14:\n      stop\n        /* \"Factory/DeployManager.sol\":2538:2819  function deactivateContract(address _address) external onlyOwner {... */\n    tag_3:\n      callvalue\n      dup1\n      iszero\n      tag_18\n      jumpi\n      revert(0x00, 0x00)\n    tag_18:\n      pop\n      tag_19\n      0x04\n      dup1\n      calldatasize\n      sub\n      dup2\n      add\n      swap1\n      tag_20\n      swap2\n      swap1\n      tag_21\n      jump\t// in\n    tag_20:\n      tag_22\n      jump\t// in\n    tag_19:\n      stop\n        /* \"Factory/DeployManager.sol\":804:858  mapping(address => address[]) public deployedContracts */\n    tag_4:\n      callvalue\n      dup1\n      iszero\n      tag_23\n      jumpi\n      revert(0x00, 0x00)\n    tag_23:\n      pop\n      tag_24\n      0x04\n      dup1\n      calldatasize\n      sub\n      dup2\n      add\n      swap1\n      tag_25\n      swap2\n      swap1\n      tag_26\n      jump\t// in\n    tag_25:\n      tag_27\n      jump\t// in\n    tag_24:\n      mload(0x40)\n      tag_28\n      swap2\n      swap1\n      tag_29\n      jump\t// in\n    tag_28:\n      mload(0x40)\n      dup1\n      swap2\n      sub\n      swap1\n      return\n        /* \"Factory/DeployManager.sol\":864:917  mapping(address => ContractInfo) public contractsData */\n    tag_5:\n      callvalue\n      dup1\n      iszero\n      tag_30\n      jumpi\n      revert(0x00, 0x00)\n    tag_30:\n      pop\n      tag_31\n      0x04\n      dup1\n      calldatasize\n      sub\n      dup2\n      add\n      swap1\n      tag_32\n      swap2\n      swap1\n      tag_21\n      jump\t// in\n    tag_32:\n      tag_33\n      jump\t// in\n    tag_31:\n      mload(0x40)\n      tag_34\n      swap4\n      swap3\n      swap2\n      swap1\n      tag_35\n      jump\t// in\n    tag_34:\n      mload(0x40)\n      dup1\n      swap2\n      sub\n      swap1\n      return\n        /* \"Factory/DeployManager.sol\":2829:3106  function activateContract(address _address) external onlyOwner {... */\n    tag_6:\n      callvalue\n      dup1\n      iszero\n      tag_36\n      jumpi\n      revert(0x00, 0x00)\n    tag_36:\n      pop\n      tag_37\n      0x04\n      dup1\n      calldatasize\n      sub\n      dup2\n      add\n      swap1\n      tag_38\n      swap2\n      swap1\n      tag_21\n      jump\t// in\n    tag_38:\n      tag_39\n      jump\t// in\n    tag_37:\n      stop\n        /* \"@openzeppelin/contracts/access/Ownable.sol\":2293:2394  function renounceOwnership() public virtual onlyOwner {... */\n    tag_7:\n      callvalue\n      dup1\n      iszero\n      tag_40\n      jumpi\n      revert(0x00, 0x00)\n    tag_40:\n      pop\n      tag_41\n      tag_42\n      jump\t// in\n    tag_41:\n      stop\n        /* \"@openzeppelin/contracts/access/Ownable.sol\":1638:1723  function owner() public view virtual returns (address) {... */\n    tag_8:\n      callvalue\n      dup1\n      iszero\n      tag_43\n      jumpi\n      revert(0x00, 0x00)\n    tag_43:\n      pop\n      tag_44\n      tag_45\n      jump\t// in\n    tag_44:\n      mload(0x40)\n      tag_46\n      swap2\n      swap1\n      tag_29\n      jump\t// in\n    tag_46:\n      mload(0x40)\n      dup1\n      swap2\n      sub\n      swap1\n      return\n        /* \"Factory/DeployManager.sol\":2143:2532  function updateFee(address _contractAddress, uint256 _newFee) external onlyOwner {... */\n    tag_9:\n      callvalue\n      dup1\n      iszero\n      tag_47\n      jumpi\n      revert(0x00, 0x00)\n    tag_47:\n      pop\n      tag_48\n      0x04\n      dup1\n      calldatasize\n      sub\n      dup2\n      add\n      swap1\n      tag_49\n      swap2\n      swap1\n      tag_26\n      jump\t// in\n    tag_49:\n      tag_50\n      jump\t// in\n    tag_48:\n      stop\n        /* \"Factory/DeployManager.sol\":1059:1771  function deploy(address _utilityContract, bytes calldata _initData) external payable returns(address) {... */\n    tag_10:\n      tag_51\n      0x04\n      dup1\n      calldatasize\n      sub\n      dup2\n      add\n      swap1\n      tag_52\n      swap2\n      swap1\n      tag_53\n      jump\t// in\n    tag_52:\n      tag_54\n      jump\t// in\n    tag_51:\n      mload(0x40)\n      tag_55\n      swap2\n      swap1\n      tag_29\n      jump\t// in\n    tag_55:\n      mload(0x40)\n      dup1\n      swap2\n      sub\n      swap1\n      return\n        /* \"@openzeppelin/contracts/access/Ownable.sol\":2543:2758  function transferOwnership(address newOwner) public virtual onlyOwner {... */\n    tag_11:\n      callvalue\n      dup1\n      iszero\n      tag_56\n      jumpi\n      revert(0x00, 0x00)\n    tag_56:\n      pop\n      tag_57\n      0x04\n      dup1\n      calldatasize\n      sub\n      dup2\n      add\n      swap1\n      tag_58\n      swap2\n      swap1\n      tag_21\n      jump\t// in\n    tag_58:\n      tag_59\n      jump\t// in\n    tag_57:\n      stop\n        /* \"Factory/DeployManager.sol\":1781:2137  function addNewContract(address _contractAddress, uint256 _fee, bool _isActive) external onlyOwner {... */\n    tag_17:\n        /* \"@openzeppelin/contracts/access/Ownable.sol\":1531:1544  _checkOwner() */\n      tag_61\n        /* \"@openzeppelin/contracts/access/Ownable.sol\":1531:1542  _checkOwner */\n      tag_62\n        /* \"@openzeppelin/contracts/access/Ownable.sol\":1531:1544  _checkOwner() */\n      jump\t// in\n    tag_61:\n        /* \"Factory/DeployManager.sol\":1924:2046  ContractInfo({... */\n      mload(0x40)\n      dup1\n      0x60\n      add\n      0x40\n      mstore\n      dup1\n        /* \"Factory/DeployManager.sol\":1956:1960  _fee */\n      dup4\n        /* \"Factory/DeployManager.sol\":1924:2046  ContractInfo({... */\n      dup2\n      mstore\n      0x20\n      add\n        /* \"Factory/DeployManager.sol\":1984:1993  _isActive */\n      dup3\n        /* \"Factory/DeployManager.sol\":1924:2046  ContractInfo({... */\n      iszero\n      iszero\n      dup2\n      mstore\n      0x20\n      add\n        /* \"Factory/DeployManager.sol\":2020:2035  block.timestamp */\n      timestamp\n        /* \"Factory/DeployManager.sol\":1924:2046  ContractInfo({... */\n      dup2\n      mstore\n      pop\n        /* \"Factory/DeployManager.sol\":1890:1903  contractsData */\n      0x02\n        /* \"Factory/DeployManager.sol\":1890:1921  contractsData[_contractAddress] */\n      0x00\n        /* \"Factory/DeployManager.sol\":1904:1920  _contractAddress */\n      dup6\n        /* \"Factory/DeployManager.sol\":1890:1921  contractsData[_contractAddress] */\n      0xffffffffffffffffffffffffffffffffffffffff\n      and\n      0xffffffffffffffffffffffffffffffffffffffff\n      and\n      dup2\n      mstore\n      0x20\n      add\n      swap1\n      dup2\n      mstore\n      0x20\n      add\n      0x00\n      keccak256\n        /* \"Factory/DeployManager.sol\":1890:2046  contractsData[_contractAddress] = ContractInfo({... */\n      0x00\n      dup3\n      add\n      mload\n      dup2\n      0x00\n      add\n      sstore\n      0x20\n      dup3\n      add\n      mload\n      dup2\n      0x01\n      add\n      exp(0x0100, 0x00)\n      dup2\n      sload\n      dup2\n      0xff\n      mul\n      not\n      and\n      swap1\n      dup4\n      iszero\n      iszero\n      mul\n      or\n      swap1\n      sstore\n      pop\n      0x40\n      dup3\n      add\n      mload\n      dup2\n      0x02\n      add\n      sstore\n      swap1\n      pop\n      pop\n        /* \"Factory/DeployManager.sol\":2062:2130  NewContractAdded(_contractAddress, _fee, _isActive, block.timestamp) */\n      0x04e5c77ae4e9e5b61ff3abeac1936c96fbd58c0bd1465c73362dccfeb31ee75a\n        /* \"Factory/DeployManager.sol\":2079:2095  _contractAddress */\n      dup4\n        /* \"Factory/DeployManager.sol\":2097:2101  _fee */\n      dup4\n        /* \"Factory/DeployManager.sol\":2103:2112  _isActive */\n      dup4\n        /* \"Factory/DeployManager.sol\":2114:2129  block.timestamp */\n      timestamp\n        /* \"Factory/DeployManager.sol\":2062:2130  NewContractAdded(_contractAddress, _fee, _isActive, block.timestamp) */\n      mload(0x40)\n      tag_64\n      swap5\n      swap4\n      swap3\n      swap2\n      swap1\n      tag_65\n      jump\t// in\n    tag_64:\n      mload(0x40)\n      dup1\n      swap2\n      sub\n      swap1\n      log1\n        /* \"Factory/DeployManager.sol\":1781:2137  function addNewContract(address _contractAddress, uint256 _fee, bool _isActive) external onlyOwner {... */\n      pop\n      pop\n      pop\n      jump\t// out\n        /* \"Factory/DeployManager.sol\":2538:2819  function deactivateContract(address _address) external onlyOwner {... */\n    tag_22:\n        /* \"@openzeppelin/contracts/access/Ownable.sol\":1531:1544  _checkOwner() */\n      tag_67\n        /* \"@openzeppelin/contracts/access/Ownable.sol\":1531:1542  _checkOwner */\n      tag_62\n        /* \"@openzeppelin/contracts/access/Ownable.sol\":1531:1544  _checkOwner() */\n      jump\t// in\n    tag_67:\n        /* \"Factory/DeployManager.sol\":2659:2660  0 */\n      0x00\n        /* \"Factory/DeployManager.sol\":2621:2634  contractsData */\n      0x02\n        /* \"Factory/DeployManager.sol\":2621:2644  contractsData[_address] */\n      0x00\n        /* \"Factory/DeployManager.sol\":2635:2643  _address */\n      dup4\n        /* \"Factory/DeployManager.sol\":2621:2644  contractsData[_address] */\n      0xffffffffffffffffffffffffffffffffffffffff\n      and\n      0xffffffffffffffffffffffffffffffffffffffff\n      and\n      dup2\n      mstore\n      0x20\n      add\n      swap1\n      dup2\n      mstore\n      0x20\n      add\n      0x00\n      keccak256\n        /* \"Factory/DeployManager.sol\":2621:2656  contractsData[_address].registredAt */\n      0x02\n      add\n      sload\n        /* \"Factory/DeployManager.sol\":2621:2660  contractsData[_address].registredAt > 0 */\n      gt\n        /* \"Factory/DeployManager.sol\":2613:2690  require(contractsData[_address].registredAt > 0, ContractDoesNotRegistered()) */\n      tag_69\n      jumpi\n      mload(0x40)\n      0xe87feefd00000000000000000000000000000000000000000000000000000000\n      dup2\n      mstore\n      0x04\n      add\n      mload(0x40)\n      dup1\n      swap2\n      sub\n      swap1\n      revert\n    tag_69:\n        /* \"Factory/DeployManager.sol\":2736:2741  false */\n      0x00\n        /* \"Factory/DeployManager.sol\":2701:2714  contractsData */\n      0x02\n        /* \"Factory/DeployManager.sol\":2701:2724  contractsData[_address] */\n      0x00\n        /* \"Factory/DeployManager.sol\":2715:2723  _address */\n      dup4\n        /* \"Factory/DeployManager.sol\":2701:2724  contractsData[_address] */\n      0xffffffffffffffffffffffffffffffffffffffff\n      and\n      0xffffffffffffffffffffffffffffffffffffffff\n      and\n      dup2\n      mstore\n      0x20\n      add\n      swap1\n      dup2\n      mstore\n      0x20\n      add\n      0x00\n      keccak256\n        /* \"Factory/DeployManager.sol\":2701:2733  contractsData[_address].isActive */\n      0x01\n      add\n      0x00\n        /* \"Factory/DeployManager.sol\":2701:2741  contractsData[_address].isActive = false */\n      0x0100\n      exp\n      dup2\n      sload\n      dup2\n      0xff\n      mul\n      not\n      and\n      swap1\n      dup4\n      iszero\n      iszero\n      mul\n      or\n      swap1\n      sstore\n      pop\n        /* \"Factory/DeployManager.sol\":2757:2812  ContractStatusUpdated(_address, false, block.timestamp) */\n      0x434ee15f55ff3aeee926d0d2cdc10861189dfdc47305a9ea5d0504102c408515\n        /* \"Factory/DeployManager.sol\":2779:2787  _address */\n      dup2\n        /* \"Factory/DeployManager.sol\":2789:2794  false */\n      0x00\n        /* \"Factory/DeployManager.sol\":2796:2811  block.timestamp */\n      timestamp\n        /* \"Factory/DeployManager.sol\":2757:2812  ContractStatusUpdated(_address, false, block.timestamp) */\n      mload(0x40)\n      tag_70\n      swap4\n      swap3\n      swap2\n      swap1\n      tag_71\n      jump\t// in\n    tag_70:\n      mload(0x40)\n      dup1\n      swap2\n      sub\n      swap1\n      log1\n        /* \"Factory/DeployManager.sol\":2538:2819  function deactivateContract(address _address) external onlyOwner {... */\n      pop\n      jump\t// out\n        /* \"Factory/DeployManager.sol\":804:858  mapping(address => address[]) public deployedContracts */\n    tag_27:\n      mstore(0x20, 0x01)\n      dup2\n      0x00\n      mstore\n      keccak256(0x00, 0x40)\n      dup2\n      dup2\n      sload\n      dup2\n      lt\n      tag_72\n      jumpi\n      0x00\n      dup1\n      revert\n    tag_72:\n      swap1\n      0x00\n      mstore\n      keccak256(0x00, 0x20)\n      add\n      0x00\n      swap2\n      pop\n      swap2\n      pop\n      swap1\n      sload\n      swap1\n      0x0100\n      exp\n      swap1\n      div\n      0xffffffffffffffffffffffffffffffffffffffff\n      and\n      dup2\n      jump\t// out\n        /* \"Factory/DeployManager.sol\":864:917  mapping(address => ContractInfo) public contractsData */\n    tag_33:\n      mstore(0x20, 0x02)\n      dup1\n      0x00\n      mstore\n      keccak256(0x00, 0x40)\n      0x00\n      swap2\n      pop\n      swap1\n      pop\n      dup1\n      0x00\n      add\n      sload\n      swap1\n      dup1\n      0x01\n      add\n      0x00\n      swap1\n      sload\n      swap1\n      0x0100\n      exp\n      swap1\n      div\n      0xff\n      and\n      swap1\n      dup1\n      0x02\n      add\n      sload\n      swap1\n      pop\n      dup4\n      jump\t// out\n        /* \"Factory/DeployManager.sol\":2829:3106  function activateContract(address _address) external onlyOwner {... */\n    tag_39:\n        /* \"@openzeppelin/contracts/access/Ownable.sol\":1531:1544  _checkOwner() */\n      tag_75\n        /* \"@openzeppelin/contracts/access/Ownable.sol\":1531:1542  _checkOwner */\n      tag_62\n        /* \"@openzeppelin/contracts/access/Ownable.sol\":1531:1544  _checkOwner() */\n      jump\t// in\n    tag_75:\n        /* \"Factory/DeployManager.sol\":2948:2949  0 */\n      0x00\n        /* \"Factory/DeployManager.sol\":2910:2923  contractsData */\n      0x02\n        /* \"Factory/DeployManager.sol\":2910:2933  contractsData[_address] */\n      0x00\n        /* \"Factory/DeployManager.sol\":2924:2932  _address */\n      dup4\n        /* \"Factory/DeployManager.sol\":2910:2933  contractsData[_address] */\n      0xffffffffffffffffffffffffffffffffffffffff\n      and\n      0xffffffffffffffffffffffffffffffffffffffff\n      and\n      dup2\n      mstore\n      0x20\n      add\n      swap1\n      dup2\n      mstore\n      0x20\n      add\n      0x00\n      keccak256\n        /* \"Factory/DeployManager.sol\":2910:2945  contractsData[_address].registredAt */\n      0x02\n      add\n      sload\n        /* \"Factory/DeployManager.sol\":2910:2949  contractsData[_address].registredAt > 0 */\n      gt\n        /* \"Factory/DeployManager.sol\":2902:2979  require(contractsData[_address].registredAt > 0, ContractDoesNotRegistered()) */\n      tag_77\n      jumpi\n      mload(0x40)\n      0xe87feefd00000000000000000000000000000000000000000000000000000000\n      dup2\n      mstore\n      0x04\n      add\n      mload(0x40)\n      dup1\n      swap2\n      sub\n      swap1\n      revert\n    tag_77:\n        /* \"Factory/DeployManager.sol\":3025:3029  true */\n      0x01\n        /* \"Factory/DeployManager.sol\":2990:3003  contractsData */\n      0x02\n        /* \"Factory/DeployManager.sol\":2990:3013  contractsData[_address] */\n      0x00\n        /* \"Factory/DeployManager.sol\":3004:3012  _address */\n      dup4\n        /* \"Factory/DeployManager.sol\":2990:3013  contractsData[_address] */\n      0xffffffffffffffffffffffffffffffffffffffff\n      and\n      0xffffffffffffffffffffffffffffffffffffffff\n      and\n      dup2\n      mstore\n      0x20\n      add\n      swap1\n      dup2\n      mstore\n      0x20\n      add\n      0x00\n      keccak256\n        /* \"Factory/DeployManager.sol\":2990:3022  contractsData[_address].isActive */\n      0x01\n      add\n      0x00\n        /* \"Factory/DeployManager.sol\":2990:3029  contractsData[_address].isActive = true */\n      0x0100\n      exp\n      dup2\n      sload\n      dup2\n      0xff\n      mul\n      not\n      and\n      swap1\n      dup4\n      iszero\n      iszero\n      mul\n      or\n      swap1\n      sstore\n      pop\n        /* \"Factory/DeployManager.sol\":3045:3099  ContractStatusUpdated(_address, true, block.timestamp) */\n      0x434ee15f55ff3aeee926d0d2cdc10861189dfdc47305a9ea5d0504102c408515\n        /* \"Factory/DeployManager.sol\":3067:3075  _address */\n      dup2\n        /* \"Factory/DeployManager.sol\":3077:3081  true */\n      0x01\n        /* \"Factory/DeployManager.sol\":3083:3098  block.timestamp */\n      timestamp\n        /* \"Factory/DeployManager.sol\":3045:3099  ContractStatusUpdated(_address, true, block.timestamp) */\n      mload(0x40)\n      tag_78\n      swap4\n      swap3\n      swap2\n      swap1\n      tag_71\n      jump\t// in\n    tag_78:\n      mload(0x40)\n      dup1\n      swap2\n      sub\n      swap1\n      log1\n        /* \"Factory/DeployManager.sol\":2829:3106  function activateContract(address _address) external onlyOwner {... */\n      pop\n      jump\t// out\n        /* \"@openzeppelin/contracts/access/Ownable.sol\":2293:2394  function renounceOwnership() public virtual onlyOwner {... */\n    tag_42:\n        /* \"@openzeppelin/contracts/access/Ownable.sol\":1531:1544  _checkOwner() */\n      tag_80\n        /* \"@openzeppelin/contracts/access/Ownable.sol\":1531:1542  _checkOwner */\n      tag_62\n        /* \"@openzeppelin/contracts/access/Ownable.sol\":1531:1544  _checkOwner() */\n      jump\t// in\n    tag_80:\n        /* \"@openzeppelin/contracts/access/Ownable.sol\":2357:2387  _transferOwnership(address(0)) */\n      tag_82\n        /* \"@openzeppelin/contracts/access/Ownable.sol\":2384:2385  0 */\n      0x00\n        /* \"@openzeppelin/contracts/access/Ownable.sol\":2357:2375  _transferOwnership */\n      tag_83\n        /* \"@openzeppelin/contracts/access/Ownable.sol\":2357:2387  _transferOwnership(address(0)) */\n      jump\t// in\n    tag_82:\n        /* \"@openzeppelin/contracts/access/Ownable.sol\":2293:2394  function renounceOwnership() public virtual onlyOwner {... */\n      jump\t// out\n        /* \"@openzeppelin/contracts/access/Ownable.sol\":1638:1723  function owner() public view virtual returns (address) {... */\n    tag_45:\n        /* \"@openzeppelin/contracts/access/Ownable.sol\":1684:1691  address */\n      0x00\n        /* \"@openzeppelin/contracts/access/Ownable.sol\":1710:1716  _owner */\n      0x00\n      0x00\n      swap1\n      sload\n      swap1\n      0x0100\n      exp\n      swap1\n      div\n      0xffffffffffffffffffffffffffffffffffffffff\n      and\n        /* \"@openzeppelin/contracts/access/Ownable.sol\":1703:1716  return _owner */\n      swap1\n      pop\n        /* \"@openzeppelin/contracts/access/Ownable.sol\":1638:1723  function owner() public view virtual returns (address) {... */\n      swap1\n      jump\t// out\n        /* \"Factory/DeployManager.sol\":2143:2532  function updateFee(address _contractAddress, uint256 _newFee) external onlyOwner {... */\n    tag_50:\n        /* \"@openzeppelin/contracts/access/Ownable.sol\":1531:1544  _checkOwner() */\n      tag_86\n        /* \"@openzeppelin/contracts/access/Ownable.sol\":1531:1542  _checkOwner */\n      tag_62\n        /* \"@openzeppelin/contracts/access/Ownable.sol\":1531:1544  _checkOwner() */\n      jump\t// in\n    tag_86:\n        /* \"Factory/DeployManager.sol\":2288:2289  0 */\n      0x00\n        /* \"Factory/DeployManager.sol\":2242:2255  contractsData */\n      0x02\n        /* \"Factory/DeployManager.sol\":2242:2273  contractsData[_contractAddress] */\n      0x00\n        /* \"Factory/DeployManager.sol\":2256:2272  _contractAddress */\n      dup5\n        /* \"Factory/DeployManager.sol\":2242:2273  contractsData[_contractAddress] */\n      0xffffffffffffffffffffffffffffffffffffffff\n      and\n      0xffffffffffffffffffffffffffffffffffffffff\n      and\n      dup2\n      mstore\n      0x20\n      add\n      swap1\n      dup2\n      mstore\n      0x20\n      add\n      0x00\n      keccak256\n        /* \"Factory/DeployManager.sol\":2242:2285  contractsData[_contractAddress].registredAt */\n      0x02\n      add\n      sload\n        /* \"Factory/DeployManager.sol\":2242:2289  contractsData[_contractAddress].registredAt > 0 */\n      gt\n        /* \"Factory/DeployManager.sol\":2234:2319  require(contractsData[_contractAddress].registredAt > 0, ContractDoesNotRegistered()) */\n      tag_88\n      jumpi\n      mload(0x40)\n      0xe87feefd00000000000000000000000000000000000000000000000000000000\n      dup2\n      mstore\n      0x04\n      add\n      mload(0x40)\n      dup1\n      swap2\n      sub\n      swap1\n      revert\n    tag_88:\n        /* \"Factory/DeployManager.sol\":2330:2345  uint256 _oldFee */\n      0x00\n        /* \"Factory/DeployManager.sol\":2348:2361  contractsData */\n      0x02\n        /* \"Factory/DeployManager.sol\":2348:2379  contractsData[_contractAddress] */\n      0x00\n        /* \"Factory/DeployManager.sol\":2362:2378  _contractAddress */\n      dup5\n        /* \"Factory/DeployManager.sol\":2348:2379  contractsData[_contractAddress] */\n      0xffffffffffffffffffffffffffffffffffffffff\n      and\n      0xffffffffffffffffffffffffffffffffffffffff\n      and\n      dup2\n      mstore\n      0x20\n      add\n      swap1\n      dup2\n      mstore\n      0x20\n      add\n      0x00\n      keccak256\n        /* \"Factory/DeployManager.sol\":2348:2383  contractsData[_contractAddress].fee */\n      0x00\n      add\n      sload\n        /* \"Factory/DeployManager.sol\":2330:2383  uint256 _oldFee = contractsData[_contractAddress].fee */\n      swap1\n      pop\n        /* \"Factory/DeployManager.sol\":2431:2438  _newFee */\n      dup2\n        /* \"Factory/DeployManager.sol\":2393:2406  contractsData */\n      0x02\n        /* \"Factory/DeployManager.sol\":2393:2424  contractsData[_contractAddress] */\n      0x00\n        /* \"Factory/DeployManager.sol\":2407:2423  _contractAddress */\n      dup6\n        /* \"Factory/DeployManager.sol\":2393:2424  contractsData[_contractAddress] */\n      0xffffffffffffffffffffffffffffffffffffffff\n      and\n      0xffffffffffffffffffffffffffffffffffffffff\n      and\n      dup2\n      mstore\n      0x20\n      add\n      swap1\n      dup2\n      mstore\n      0x20\n      add\n      0x00\n      keccak256\n        /* \"Factory/DeployManager.sol\":2393:2428  contractsData[_contractAddress].fee */\n      0x00\n      add\n        /* \"Factory/DeployManager.sol\":2393:2438  contractsData[_contractAddress].fee = _newFee */\n      dup2\n      swap1\n      sstore\n      pop\n        /* \"Factory/DeployManager.sol\":2454:2525  ContractFeeUpdated(_contractAddress, _oldFee, _newFee, block.timestamp) */\n      0xae754cde05a89e748dcec68ddb7845dfa44d041f114d95bf8d37338b6e0c9a5d\n        /* \"Factory/DeployManager.sol\":2473:2489  _contractAddress */\n      dup4\n        /* \"Factory/DeployManager.sol\":2491:2498  _oldFee */\n      dup3\n        /* \"Factory/DeployManager.sol\":2500:2507  _newFee */\n      dup5\n        /* \"Factory/DeployManager.sol\":2509:2524  block.timestamp */\n      timestamp\n        /* \"Factory/DeployManager.sol\":2454:2525  ContractFeeUpdated(_contractAddress, _oldFee, _newFee, block.timestamp) */\n      mload(0x40)\n      tag_89\n      swap5\n      swap4\n      swap3\n      swap2\n      swap1\n      tag_90\n      jump\t// in\n    tag_89:\n      mload(0x40)\n      dup1\n      swap2\n      sub\n      swap1\n      log1\n        /* \"Factory/DeployManager.sol\":2224:2532  {... */\n      pop\n        /* \"Factory/DeployManager.sol\":2143:2532  function updateFee(address _contractAddress, uint256 _newFee) external onlyOwner {... */\n      pop\n      pop\n      jump\t// out\n        /* \"Factory/DeployManager.sol\":1059:1771  function deploy(address _utilityContract, bytes calldata _initData) external payable returns(address) {... */\n    tag_54:\n        /* \"Factory/DeployManager.sol\":1152:1159  address */\n      0x00\n        /* \"Factory/DeployManager.sol\":1180:1204  ContractInfo memory info */\n      0x00\n        /* \"Factory/DeployManager.sol\":1207:1220  contractsData */\n      0x02\n        /* \"Factory/DeployManager.sol\":1207:1238  contractsData[_utilityContract] */\n      0x00\n        /* \"Factory/DeployManager.sol\":1221:1237  _utilityContract */\n      dup7\n        /* \"Factory/DeployManager.sol\":1207:1238  contractsData[_utilityContract] */\n      0xffffffffffffffffffffffffffffffffffffffff\n      and\n      0xffffffffffffffffffffffffffffffffffffffff\n      and\n      dup2\n      mstore\n      0x20\n      add\n      swap1\n      dup2\n      mstore\n      0x20\n      add\n      0x00\n      keccak256\n        /* \"Factory/DeployManager.sol\":1180:1238  ContractInfo memory info = contractsData[_utilityContract] */\n      mload(0x40)\n      dup1\n      0x60\n      add\n      0x40\n      mstore\n      swap1\n      dup2\n      0x00\n      dup3\n      add\n      sload\n      dup2\n      mstore\n      0x20\n      add\n      0x01\n      dup3\n      add\n      0x00\n      swap1\n      sload\n      swap1\n      0x0100\n      exp\n      swap1\n      div\n      0xff\n      and\n      iszero\n      iszero\n      iszero\n      iszero\n      dup2\n      mstore\n      0x20\n      add\n      0x02\n      dup3\n      add\n      sload\n      dup2\n      mstore\n      pop\n      pop\n      swap1\n      pop\n        /* \"Factory/DeployManager.sol\":1258:1262  info */\n      dup1\n        /* \"Factory/DeployManager.sol\":1258:1271  info.isActive */\n      0x20\n      add\n      mload\n        /* \"Factory/DeployManager.sol\":1250:1293  require(info.isActive, ContractNotActive()) */\n      tag_92\n      jumpi\n      mload(0x40)\n      0x4e00e51300000000000000000000000000000000000000000000000000000000\n      dup2\n      mstore\n      0x04\n      add\n      mload(0x40)\n      dup1\n      swap2\n      sub\n      swap1\n      revert\n    tag_92:\n        /* \"Factory/DeployManager.sol\":1324:1328  info */\n      dup1\n        /* \"Factory/DeployManager.sol\":1324:1332  info.fee */\n      0x00\n      add\n      mload\n        /* \"Factory/DeployManager.sol\":1311:1320  msg.value */\n      callvalue\n        /* \"Factory/DeployManager.sol\":1311:1332  msg.value >= info.fee */\n      lt\n      iszero\n        /* \"Factory/DeployManager.sol\":1303:1352  require(msg.value >= info.fee, NotEnoughtFunds()) */\n      tag_93\n      jumpi\n      mload(0x40)\n      0xc1463a4000000000000000000000000000000000000000000000000000000000\n      dup2\n      mstore\n      0x04\n      add\n      mload(0x40)\n      dup1\n      swap2\n      sub\n      swap1\n      revert\n    tag_93:\n        /* \"Factory/DeployManager.sol\":1389:1390  0 */\n      0x00\n        /* \"Factory/DeployManager.sol\":1370:1374  info */\n      dup2\n        /* \"Factory/DeployManager.sol\":1370:1386  info.registredAt */\n      0x40\n      add\n      mload\n        /* \"Factory/DeployManager.sol\":1370:1390  info.registredAt > 0 */\n      gt\n        /* \"Factory/DeployManager.sol\":1362:1420  require(info.registredAt > 0, ContractDoesNotRegistered()) */\n      tag_94\n      jumpi\n      mload(0x40)\n      0xe87feefd00000000000000000000000000000000000000000000000000000000\n      dup2\n      mstore\n      0x04\n      add\n      mload(0x40)\n      dup1\n      swap2\n      sub\n      swap1\n      revert\n    tag_94:\n        /* \"Factory/DeployManager.sol\":1431:1444  address clone */\n      0x00\n        /* \"Factory/DeployManager.sol\":1447:1477  Clones.clone(_utilityContract) */\n      tag_95\n        /* \"Factory/DeployManager.sol\":1460:1476  _utilityContract */\n      dup7\n        /* \"Factory/DeployManager.sol\":1447:1459  Clones.clone */\n      tag_96\n        /* \"Factory/DeployManager.sol\":1447:1477  Clones.clone(_utilityContract) */\n      jump\t// in\n    tag_95:\n        /* \"Factory/DeployManager.sol\":1431:1477  address clone = Clones.clone(_utilityContract) */\n      swap1\n      pop\n        /* \"Factory/DeployManager.sol\":1513:1518  clone */\n      dup1\n        /* \"Factory/DeployManager.sol\":1496:1530  IUtilityContract(clone).initialize */\n      0xffffffffffffffffffffffffffffffffffffffff\n      and\n      0x439fab91\n        /* \"Factory/DeployManager.sol\":1531:1540  _initData */\n      dup7\n      dup7\n        /* \"Factory/DeployManager.sol\":1496:1541  IUtilityContract(clone).initialize(_initData) */\n      mload(0x40)\n      dup4\n      0xffffffff\n      and\n      0xe0\n      shl\n      dup2\n      mstore\n      0x04\n      add\n      tag_97\n      swap3\n      swap2\n      swap1\n      tag_98\n      jump\t// in\n    tag_97:\n      0x20\n      mload(0x40)\n      dup1\n      dup4\n      sub\n      dup2\n      0x00\n      dup8\n      gas\n      call\n      iszero\n      dup1\n      iszero\n      tag_100\n      jumpi\n      returndatacopy(0x00, 0x00, returndatasize)\n      revert(0x00, returndatasize)\n    tag_100:\n      pop\n      pop\n      pop\n      pop\n      mload(0x40)\n      returndatasize\n      not(0x1f)\n      0x1f\n      dup3\n      add\n      and\n      dup3\n      add\n      dup1\n      0x40\n      mstore\n      pop\n      dup2\n      add\n      swap1\n      tag_101\n      swap2\n      swap1\n      tag_102\n      jump\t// in\n    tag_101:\n        /* \"Factory/DeployManager.sol\":1488:1566  require(IUtilityContract(clone).initialize(_initData), InitializationFailed()) */\n      tag_103\n      jumpi\n      mload(0x40)\n      0x19b991a800000000000000000000000000000000000000000000000000000000\n      dup2\n      mstore\n      0x04\n      add\n      mload(0x40)\n      dup1\n      swap2\n      sub\n      swap1\n      revert\n    tag_103:\n        /* \"Factory/DeployManager.sol\":1585:1592  owner() */\n      tag_104\n        /* \"Factory/DeployManager.sol\":1585:1590  owner */\n      tag_45\n        /* \"Factory/DeployManager.sol\":1585:1592  owner() */\n      jump\t// in\n    tag_104:\n        /* \"Factory/DeployManager.sol\":1577:1602  payable(owner()).transfer */\n      0xffffffffffffffffffffffffffffffffffffffff\n      and\n        /* \"Factory/DeployManager.sol\":1577:1613  payable(owner()).transfer(msg.value) */\n      0x08fc\n        /* \"Factory/DeployManager.sol\":1603:1612  msg.value */\n      callvalue\n        /* \"Factory/DeployManager.sol\":1577:1613  payable(owner()).transfer(msg.value) */\n      swap1\n      dup2\n      iszero\n      mul\n      swap1\n      mload(0x40)\n      0x00\n      mload(0x40)\n      dup1\n      dup4\n      sub\n      dup2\n      dup6\n      dup9\n      dup9\n      call\n      swap4\n      pop\n      pop\n      pop\n      pop\n      iszero\n      dup1\n      iszero\n      tag_106\n      jumpi\n      returndatacopy(0x00, 0x00, returndatasize)\n      revert(0x00, returndatasize)\n    tag_106:\n      pop\n        /* \"Factory/DeployManager.sol\":1624:1641  deployedContracts */\n      0x01\n        /* \"Factory/DeployManager.sol\":1624:1653  deployedContracts[msg.sender] */\n      0x00\n        /* \"Factory/DeployManager.sol\":1642:1652  msg.sender */\n      caller\n        /* \"Factory/DeployManager.sol\":1624:1653  deployedContracts[msg.sender] */\n      0xffffffffffffffffffffffffffffffffffffffff\n      and\n      0xffffffffffffffffffffffffffffffffffffffff\n      and\n      dup2\n      mstore\n      0x20\n      add\n      swap1\n      dup2\n      mstore\n      0x20\n      add\n      0x00\n      keccak256\n        /* \"Factory/DeployManager.sol\":1659:1664  clone */\n      dup2\n        /* \"Factory/DeployManager.sol\":1624:1665  deployedContracts[msg.sender].push(clone) */\n      swap1\n      dup1\n      0x01\n      dup2\n      sload\n      add\n      dup1\n      dup3\n      sstore\n      dup1\n      swap2\n      pop\n      pop\n      0x01\n      swap1\n      sub\n      swap1\n      0x00\n      mstore\n      keccak256(0x00, 0x20)\n      add\n      0x00\n      swap1\n      swap2\n      swap1\n      swap2\n      swap1\n      swap2\n      0x0100\n      exp\n      dup2\n      sload\n      dup2\n      0xffffffffffffffffffffffffffffffffffffffff\n      mul\n      not\n      and\n      swap1\n      dup4\n      0xffffffffffffffffffffffffffffffffffffffff\n      and\n      mul\n      or\n      swap1\n      sstore\n      pop\n        /* \"Factory/DeployManager.sol\":1681:1741  NewDeployment(msg.sender, clone, msg.value, block.timestamp) */\n      0x4335dea2303bafa4bcabf73562ea6cf86520c11cda707391eac6afaf50c46ab8\n        /* \"Factory/DeployManager.sol\":1695:1705  msg.sender */\n      caller\n        /* \"Factory/DeployManager.sol\":1707:1712  clone */\n      dup3\n        /* \"Factory/DeployManager.sol\":1714:1723  msg.value */\n      callvalue\n        /* \"Factory/DeployManager.sol\":1725:1740  block.timestamp */\n      timestamp\n        /* \"Factory/DeployManager.sol\":1681:1741  NewDeployment(msg.sender, clone, msg.value, block.timestamp) */\n      mload(0x40)\n      tag_108\n      swap5\n      swap4\n      swap3\n      swap2\n      swap1\n      tag_109\n      jump\t// in\n    tag_108:\n      mload(0x40)\n      dup1\n      swap2\n      sub\n      swap1\n      log1\n        /* \"Factory/DeployManager.sol\":1759:1764  clone */\n      dup1\n        /* \"Factory/DeployManager.sol\":1752:1764  return clone */\n      swap3\n      pop\n      pop\n      pop\n        /* \"Factory/DeployManager.sol\":1059:1771  function deploy(address _utilityContract, bytes calldata _initData) external payable returns(address) {... */\n      swap4\n      swap3\n      pop\n      pop\n      pop\n      jump\t// out\n        /* \"@openzeppelin/contracts/access/Ownable.sol\":2543:2758  function transferOwnership(address newOwner) public virtual onlyOwner {... */\n    tag_59:\n        /* \"@openzeppelin/contracts/access/Ownable.sol\":1531:1544  _checkOwner() */\n      tag_111\n        /* \"@openzeppelin/contracts/access/Ownable.sol\":1531:1542  _checkOwner */\n      tag_62\n        /* \"@openzeppelin/contracts/access/Ownable.sol\":1531:1544  _checkOwner() */\n      jump\t// in\n    tag_111:\n        /* \"@openzeppelin/contracts/access/Ownable.sol\":2647:2648  0 */\n      0x00\n        /* \"@openzeppelin/contracts/access/Ownable.sol\":2627:2649  newOwner == address(0) */\n      0xffffffffffffffffffffffffffffffffffffffff\n      and\n        /* \"@openzeppelin/contracts/access/Ownable.sol\":2627:2635  newOwner */\n      dup2\n        /* \"@openzeppelin/contracts/access/Ownable.sol\":2627:2649  newOwner == address(0) */\n      0xffffffffffffffffffffffffffffffffffffffff\n      and\n      sub\n        /* \"@openzeppelin/contracts/access/Ownable.sol\":2623:2714  if (newOwner == address(0)) {... */\n      tag_113\n      jumpi\n        /* \"@openzeppelin/contracts/access/Ownable.sol\":2700:2701  0 */\n      0x00\n        /* \"@openzeppelin/contracts/access/Ownable.sol\":2672:2703  OwnableInvalidOwner(address(0)) */\n      mload(0x40)\n      0x1e4fbdf700000000000000000000000000000000000000000000000000000000\n      dup2\n      mstore\n      0x04\n      add\n      tag_114\n      swap2\n      swap1\n      tag_29\n      jump\t// in\n    tag_114:\n      mload(0x40)\n      dup1\n      swap2\n      sub\n      swap1\n      revert\n        /* \"@openzeppelin/contracts/access/Ownable.sol\":2623:2714  if (newOwner == address(0)) {... */\n    tag_113:\n        /* \"@openzeppelin/contracts/access/Ownable.sol\":2723:2751  _transferOwnership(newOwner) */\n      tag_115\n        /* \"@openzeppelin/contracts/access/Ownable.sol\":2742:2750  newOwner */\n      dup2\n        /* \"@openzeppelin/contracts/access/Ownable.sol\":2723:2741  _transferOwnership */\n      tag_83\n        /* \"@openzeppelin/contracts/access/Ownable.sol\":2723:2751  _transferOwnership(newOwner) */\n      jump\t// in\n    tag_115:\n        /* \"@openzeppelin/contracts/access/Ownable.sol\":2543:2758  function transferOwnership(address newOwner) public virtual onlyOwner {... */\n      pop\n      jump\t// out\n        /* \"@openzeppelin/contracts/access/Ownable.sol\":1796:1958  function _checkOwner() internal view virtual {... */\n    tag_62:\n        /* \"@openzeppelin/contracts/access/Ownable.sol\":1866:1878  _msgSender() */\n      tag_117\n        /* \"@openzeppelin/contracts/access/Ownable.sol\":1866:1876  _msgSender */\n      tag_118\n        /* \"@openzeppelin/contracts/access/Ownable.sol\":1866:1878  _msgSender() */\n      jump\t// in\n    tag_117:\n        /* \"@openzeppelin/contracts/access/Ownable.sol\":1855:1878  owner() != _msgSender() */\n      0xffffffffffffffffffffffffffffffffffffffff\n      and\n        /* \"@openzeppelin/contracts/access/Ownable.sol\":1855:1862  owner() */\n      tag_119\n        /* \"@openzeppelin/contracts/access/Ownable.sol\":1855:1860  owner */\n      tag_45\n        /* \"@openzeppelin/contracts/access/Ownable.sol\":1855:1862  owner() */\n      jump\t// in\n    tag_119:\n        /* \"@openzeppelin/contracts/access/Ownable.sol\":1855:1878  owner() != _msgSender() */\n      0xffffffffffffffffffffffffffffffffffffffff\n      and\n      eq\n        /* \"@openzeppelin/contracts/access/Ownable.sol\":1851:1952  if (owner() != _msgSender()) {... */\n      tag_120\n      jumpi\n        /* \"@openzeppelin/contracts/access/Ownable.sol\":1928:1940  _msgSender() */\n      tag_121\n        /* \"@openzeppelin/contracts/access/Ownable.sol\":1928:1938  _msgSender */\n      tag_118\n        /* \"@openzeppelin/contracts/access/Ownable.sol\":1928:1940  _msgSender() */\n      jump\t// in\n    tag_121:\n        /* \"@openzeppelin/contracts/access/Ownable.sol\":1901:1941  OwnableUnauthorizedAccount(_msgSender()) */\n      mload(0x40)\n      0x118cdaa700000000000000000000000000000000000000000000000000000000\n      dup2\n      mstore\n      0x04\n      add\n      tag_122\n      swap2\n      swap1\n      tag_29\n      jump\t// in\n    tag_122:\n      mload(0x40)\n      dup1\n      swap2\n      sub\n      swap1\n      revert\n        /* \"@openzeppelin/contracts/access/Ownable.sol\":1851:1952  if (owner() != _msgSender()) {... */\n    tag_120:\n        /* \"@openzeppelin/contracts/access/Ownable.sol\":1796:1958  function _checkOwner() internal view virtual {... */\n      jump\t// out\n        /* \"@openzeppelin/contracts/access/Ownable.sol\":2912:3099  function _transferOwnership(address newOwner) internal virtual {... */\n    tag_83:\n        /* \"@openzeppelin/contracts/access/Ownable.sol\":2985:3001  address oldOwner */\n      0x00\n        /* \"@openzeppelin/contracts/access/Ownable.sol\":3004:3010  _owner */\n      0x00\n      0x00\n      swap1\n      sload\n      swap1\n      0x0100\n      exp\n      swap1\n      div\n      0xffffffffffffffffffffffffffffffffffffffff\n      and\n        /* \"@openzeppelin/contracts/access/Ownable.sol\":2985:3010  address oldOwner = _owner */\n      swap1\n      pop\n        /* \"@openzeppelin/contracts/access/Ownable.sol\":3029:3037  newOwner */\n      dup2\n        /* \"@openzeppelin/contracts/access/Ownable.sol\":3020:3026  _owner */\n      0x00\n      0x00\n        /* \"@openzeppelin/contracts/access/Ownable.sol\":3020:3037  _owner = newOwner */\n      0x0100\n      exp\n      dup2\n      sload\n      dup2\n      0xffffffffffffffffffffffffffffffffffffffff\n      mul\n      not\n      and\n      swap1\n      dup4\n      0xffffffffffffffffffffffffffffffffffffffff\n      and\n      mul\n      or\n      swap1\n      sstore\n      pop\n        /* \"@openzeppelin/contracts/access/Ownable.sol\":3083:3091  newOwner */\n      dup2\n        /* \"@openzeppelin/contracts/access/Ownable.sol\":3052:3092  OwnershipTransferred(oldOwner, newOwner) */\n      0xffffffffffffffffffffffffffffffffffffffff\n      and\n        /* \"@openzeppelin/contracts/access/Ownable.sol\":3073:3081  oldOwner */\n      dup2\n        /* \"@openzeppelin/contracts/access/Ownable.sol\":3052:3092  OwnershipTransferred(oldOwner, newOwner) */\n      0xffffffffffffffffffffffffffffffffffffffff\n      and\n      0x8be0079c531659141344cd1fd0a4f28419497f9722a3daafe3b4186f6b6457e0\n      mload(0x40)\n      mload(0x40)\n      dup1\n      swap2\n      sub\n      swap1\n      log3\n        /* \"@openzeppelin/contracts/access/Ownable.sol\":2975:3099  {... */\n      pop\n        /* \"@openzeppelin/contracts/access/Ownable.sol\":2912:3099  function _transferOwnership(address newOwner) internal virtual {... */\n      pop\n      jump\t// out\n        /* \"@openzeppelin/contracts/proxy/Clones.sol\":1071:1194  function clone(address implementation) internal returns (address instance) {... */\n    tag_96:\n        /* \"@openzeppelin/contracts/proxy/Clones.sol\":1128:1144  address instance */\n      0x00\n        /* \"@openzeppelin/contracts/proxy/Clones.sol\":1163:1187  clone(implementation, 0) */\n      tag_125\n        /* \"@openzeppelin/contracts/proxy/Clones.sol\":1169:1183  implementation */\n      dup3\n        /* \"@openzeppelin/contracts/proxy/Clones.sol\":1185:1186  0 */\n      0x00\n        /* \"@openzeppelin/contracts/proxy/Clones.sol\":1163:1168  clone */\n      tag_126\n        /* \"@openzeppelin/contracts/proxy/Clones.sol\":1163:1187  clone(implementation, 0) */\n      jump\t// in\n    tag_125:\n        /* \"@openzeppelin/contracts/proxy/Clones.sol\":1156:1187  return clone(implementation, 0) */\n      swap1\n      pop\n        /* \"@openzeppelin/contracts/proxy/Clones.sol\":1071:1194  function clone(address implementation) internal returns (address instance) {... */\n      swap2\n      swap1\n      pop\n      jump\t// out\n        /* \"@openzeppelin/contracts/utils/Context.sol\":656:752  function _msgSender() internal view virtual returns (address) {... */\n    tag_118:\n        /* \"@openzeppelin/contracts/utils/Context.sol\":709:716  address */\n      0x00\n        /* \"@openzeppelin/contracts/utils/Context.sol\":735:745  msg.sender */\n      caller\n        /* \"@openzeppelin/contracts/utils/Context.sol\":728:745  return msg.sender */\n      swap1\n      pop\n        /* \"@openzeppelin/contracts/utils/Context.sol\":656:752  function _msgSender() internal view virtual returns (address) {... */\n      swap1\n      jump\t// out\n        /* \"@openzeppelin/contracts/proxy/Clones.sol\":1586:2496  function clone(address implementation, uint256 value) internal returns (address instance) {... */\n    tag_126:\n        /* \"@openzeppelin/contracts/proxy/Clones.sol\":1658:1674  address instance */\n      0x00\n        /* \"@openzeppelin/contracts/proxy/Clones.sol\":1714:1719  value */\n      dup2\n        /* \"@openzeppelin/contracts/proxy/Clones.sol\":1690:1711  address(this).balance */\n      selfbalance\n        /* \"@openzeppelin/contracts/proxy/Clones.sol\":1690:1719  address(this).balance < value */\n      lt\n        /* \"@openzeppelin/contracts/proxy/Clones.sol\":1686:1809  if (address(this).balance < value) {... */\n      iszero\n      tag_129\n      jumpi\n        /* \"@openzeppelin/contracts/proxy/Clones.sol\":1769:1790  address(this).balance */\n      selfbalance\n        /* \"@openzeppelin/contracts/proxy/Clones.sol\":1792:1797  value */\n      dup3\n        /* \"@openzeppelin/contracts/proxy/Clones.sol\":1742:1798  Errors.InsufficientBalance(address(this).balance, value) */\n      mload(0x40)\n      0xcf47918100000000000000000000000000000000000000000000000000000000\n      dup2\n      mstore\n      0x04\n      add\n      tag_130\n      swap3\n      swap2\n      swap1\n      tag_131\n      jump\t// in\n    tag_130:\n      mload(0x40)\n      dup1\n      swap2\n      sub\n      swap1\n      revert\n        /* \"@openzeppelin/contracts/proxy/Clones.sol\":1686:1809  if (address(this).balance < value) {... */\n    tag_129:\n        /* \"@openzeppelin/contracts/proxy/Clones.sol\":2095:2143  0x3d602d80600a3d3981f3363d3d373d3d3d363d73000000 */\n      0x3d602d80600a3d3981f3363d3d373d3d3d363d73000000\n        /* \"@openzeppelin/contracts/proxy/Clones.sol\":2077:2091  implementation */\n      dup4\n        /* \"@openzeppelin/contracts/proxy/Clones.sol\":2071:2075  0x60 */\n      0x60\n        /* \"@openzeppelin/contracts/proxy/Clones.sol\":2067:2092  shl(0x60, implementation) */\n      shl\n        /* \"@openzeppelin/contracts/proxy/Clones.sol\":2061:2065  0xe8 */\n      0xe8\n        /* \"@openzeppelin/contracts/proxy/Clones.sol\":2057:2093  shr(0xe8, shl(0x60, implementation)) */\n      shr\n        /* \"@openzeppelin/contracts/proxy/Clones.sol\":2054:2144  or(shr(0xe8, shl(0x60, implementation)), 0x3d602d80600a3d3981f3363d3d373d3d3d363d73000000) */\n      or\n        /* \"@openzeppelin/contracts/proxy/Clones.sol\":2048:2052  0x00 */\n      0x00\n        /* \"@openzeppelin/contracts/proxy/Clones.sol\":2041:2145  mstore(0x00, or(shr(0xe8, shl(0x60, implementation)), 0x3d602d80600a3d3981f3363d3d373d3d3d363d73000000)) */\n      mstore\n        /* \"@openzeppelin/contracts/proxy/Clones.sol\":2302:2334  0x5af43d82803e903d91602b57fd5bf3 */\n      0x5af43d82803e903d91602b57fd5bf3\n        /* \"@openzeppelin/contracts/proxy/Clones.sol\":2285:2299  implementation */\n      dup4\n        /* \"@openzeppelin/contracts/proxy/Clones.sol\":2279:2283  0x78 */\n      0x78\n        /* \"@openzeppelin/contracts/proxy/Clones.sol\":2275:2300  shl(0x78, implementation) */\n      shl\n        /* \"@openzeppelin/contracts/proxy/Clones.sol\":2272:2335  or(shl(0x78, implementation), 0x5af43d82803e903d91602b57fd5bf3) */\n      or\n        /* \"@openzeppelin/contracts/proxy/Clones.sol\":2266:2270  0x20 */\n      0x20\n        /* \"@openzeppelin/contracts/proxy/Clones.sol\":2259:2336  mstore(0x20, or(shl(0x78, implementation), 0x5af43d82803e903d91602b57fd5bf3)) */\n      mstore\n        /* \"@openzeppelin/contracts/proxy/Clones.sol\":2381:2385  0x37 */\n      0x37\n        /* \"@openzeppelin/contracts/proxy/Clones.sol\":2375:2379  0x09 */\n      0x09\n        /* \"@openzeppelin/contracts/proxy/Clones.sol\":2368:2373  value */\n      dup4\n        /* \"@openzeppelin/contracts/proxy/Clones.sol\":2361:2386  create(value, 0x09, 0x37) */\n      create\n        /* \"@openzeppelin/contracts/proxy/Clones.sol\":2349:2386  instance := create(value, 0x09, 0x37) */\n      swap1\n      pop\n        /* \"@openzeppelin/contracts/proxy/Clones.sol\":2429:2430  0 */\n      0x00\n        /* \"@openzeppelin/contracts/proxy/Clones.sol\":2409:2431  instance == address(0) */\n      0xffffffffffffffffffffffffffffffffffffffff\n      and\n        /* \"@openzeppelin/contracts/proxy/Clones.sol\":2409:2417  instance */\n      dup2\n        /* \"@openzeppelin/contracts/proxy/Clones.sol\":2409:2431  instance == address(0) */\n      0xffffffffffffffffffffffffffffffffffffffff\n      and\n      sub\n        /* \"@openzeppelin/contracts/proxy/Clones.sol\":2405:2490  if (instance == address(0)) {... */\n      tag_132\n      jumpi\n        /* \"@openzeppelin/contracts/proxy/Clones.sol\":2454:2479  Errors.FailedDeployment() */\n      mload(0x40)\n      0xb06ebf3d00000000000000000000000000000000000000000000000000000000\n      dup2\n      mstore\n      0x04\n      add\n      mload(0x40)\n      dup1\n      swap2\n      sub\n      swap1\n      revert\n        /* \"@openzeppelin/contracts/proxy/Clones.sol\":2405:2490  if (instance == address(0)) {... */\n    tag_132:\n        /* \"@openzeppelin/contracts/proxy/Clones.sol\":1586:2496  function clone(address implementation, uint256 value) internal returns (address instance) {... */\n      swap3\n      swap2\n      pop\n      pop\n      jump\t// out\n        /* \"#utility.yul\":88:205   */\n    tag_134:\n        /* \"#utility.yul\":197:198   */\n      0x00\n        /* \"#utility.yul\":194:195   */\n      0x00\n        /* \"#utility.yul\":187:199   */\n      revert\n        /* \"#utility.yul\":211:328   */\n    tag_135:\n        /* \"#utility.yul\":320:321   */\n      0x00\n        /* \"#utility.yul\":317:318   */\n      0x00\n        /* \"#utility.yul\":310:322   */\n      revert\n        /* \"#utility.yul\":334:460   */\n    tag_136:\n        /* \"#utility.yul\":371:378   */\n      0x00\n        /* \"#utility.yul\":411:453   */\n      0xffffffffffffffffffffffffffffffffffffffff\n        /* \"#utility.yul\":404:409   */\n      dup3\n        /* \"#utility.yul\":400:454   */\n      and\n        /* \"#utility.yul\":389:454   */\n      swap1\n      pop\n        /* \"#utility.yul\":334:460   */\n      swap2\n      swap1\n      pop\n      jump\t// out\n        /* \"#utility.yul\":466:562   */\n    tag_137:\n        /* \"#utility.yul\":503:510   */\n      0x00\n        /* \"#utility.yul\":532:556   */\n      tag_164\n        /* \"#utility.yul\":550:555   */\n      dup3\n        /* \"#utility.yul\":532:556   */\n      tag_136\n      jump\t// in\n    tag_164:\n        /* \"#utility.yul\":521:556   */\n      swap1\n      pop\n        /* \"#utility.yul\":466:562   */\n      swap2\n      swap1\n      pop\n      jump\t// out\n        /* \"#utility.yul\":568:690   */\n    tag_138:\n        /* \"#utility.yul\":641:665   */\n      tag_166\n        /* \"#utility.yul\":659:664   */\n      dup2\n        /* \"#utility.yul\":641:665   */\n      tag_137\n      jump\t// in\n    tag_166:\n        /* \"#utility.yul\":634:639   */\n      dup2\n        /* \"#utility.yul\":631:666   */\n      eq\n        /* \"#utility.yul\":621:684   */\n      tag_167\n      jumpi\n        /* \"#utility.yul\":680:681   */\n      0x00\n        /* \"#utility.yul\":677:678   */\n      0x00\n        /* \"#utility.yul\":670:682   */\n      revert\n        /* \"#utility.yul\":621:684   */\n    tag_167:\n        /* \"#utility.yul\":568:690   */\n      pop\n      jump\t// out\n        /* \"#utility.yul\":696:835   */\n    tag_139:\n        /* \"#utility.yul\":742:747   */\n      0x00\n        /* \"#utility.yul\":780:786   */\n      dup2\n        /* \"#utility.yul\":767:787   */\n      calldataload\n        /* \"#utility.yul\":758:787   */\n      swap1\n      pop\n        /* \"#utility.yul\":796:829   */\n      tag_169\n        /* \"#utility.yul\":823:828   */\n      dup2\n        /* \"#utility.yul\":796:829   */\n      tag_138\n      jump\t// in\n    tag_169:\n        /* \"#utility.yul\":696:835   */\n      swap3\n      swap2\n      pop\n      pop\n      jump\t// out\n        /* \"#utility.yul\":841:918   */\n    tag_140:\n        /* \"#utility.yul\":878:885   */\n      0x00\n        /* \"#utility.yul\":907:912   */\n      dup2\n        /* \"#utility.yul\":896:912   */\n      swap1\n      pop\n        /* \"#utility.yul\":841:918   */\n      swap2\n      swap1\n      pop\n      jump\t// out\n        /* \"#utility.yul\":924:1046   */\n    tag_141:\n        /* \"#utility.yul\":997:1021   */\n      tag_172\n        /* \"#utility.yul\":1015:1020   */\n      dup2\n        /* \"#utility.yul\":997:1021   */\n      tag_140\n      jump\t// in\n    tag_172:\n        /* \"#utility.yul\":990:995   */\n      dup2\n        /* \"#utility.yul\":987:1022   */\n      eq\n        /* \"#utility.yul\":977:1040   */\n      tag_173\n      jumpi\n        /* \"#utility.yul\":1036:1037   */\n      0x00\n        /* \"#utility.yul\":1033:1034   */\n      0x00\n        /* \"#utility.yul\":1026:1038   */\n      revert\n        /* \"#utility.yul\":977:1040   */\n    tag_173:\n        /* \"#utility.yul\":924:1046   */\n      pop\n      jump\t// out\n        /* \"#utility.yul\":1052:1191   */\n    tag_142:\n        /* \"#utility.yul\":1098:1103   */\n      0x00\n        /* \"#utility.yul\":1136:1142   */\n      dup2\n        /* \"#utility.yul\":1123:1143   */\n      calldataload\n        /* \"#utility.yul\":1114:1143   */\n      swap1\n      pop\n        /* \"#utility.yul\":1152:1185   */\n      tag_175\n        /* \"#utility.yul\":1179:1184   */\n      dup2\n        /* \"#utility.yul\":1152:1185   */\n      tag_141\n      jump\t// in\n    tag_175:\n        /* \"#utility.yul\":1052:1191   */\n      swap3\n      swap2\n      pop\n      pop\n      jump\t// out\n        /* \"#utility.yul\":1197:1287   */\n    tag_143:\n        /* \"#utility.yul\":1231:1238   */\n      0x00\n        /* \"#utility.yul\":1274:1279   */\n      dup2\n        /* \"#utility.yul\":1267:1280   */\n      iszero\n        /* \"#utility.yul\":1260:1281   */\n      iszero\n        /* \"#utility.yul\":1249:1281   */\n      swap1\n      pop\n        /* \"#utility.yul\":1197:1287   */\n      swap2\n      swap1\n      pop\n      jump\t// out\n        /* \"#utility.yul\":1293:1409   */\n    tag_144:\n        /* \"#utility.yul\":1363:1384   */\n      tag_178\n        /* \"#utility.yul\":1378:1383   */\n      dup2\n        /* \"#utility.yul\":1363:1384   */\n      tag_143\n      jump\t// in\n    tag_178:\n        /* \"#utility.yul\":1356:1361   */\n      dup2\n        /* \"#utility.yul\":1353:1385   */\n      eq\n        /* \"#utility.yul\":1343:1403   */\n      tag_179\n      jumpi\n        /* \"#utility.yul\":1399:1400   */\n      0x00\n        /* \"#utility.yul\":1396:1397   */\n      0x00\n        /* \"#utility.yul\":1389:1401   */\n      revert\n        /* \"#utility.yul\":1343:1403   */\n    tag_179:\n        /* \"#utility.yul\":1293:1409   */\n      pop\n      jump\t// out\n        /* \"#utility.yul\":1415:1548   */\n    tag_145:\n        /* \"#utility.yul\":1458:1463   */\n      0x00\n        /* \"#utility.yul\":1496:1502   */\n      dup2\n        /* \"#utility.yul\":1483:1503   */\n      calldataload\n        /* \"#utility.yul\":1474:1503   */\n      swap1\n      pop\n        /* \"#utility.yul\":1512:1542   */\n      tag_181\n        /* \"#utility.yul\":1536:1541   */\n      dup2\n        /* \"#utility.yul\":1512:1542   */\n      tag_144\n      jump\t// in\n    tag_181:\n        /* \"#utility.yul\":1415:1548   */\n      swap3\n      swap2\n      pop\n      pop\n      jump\t// out\n        /* \"#utility.yul\":1554:2167   */\n    tag_16:\n        /* \"#utility.yul\":1628:1634   */\n      0x00\n        /* \"#utility.yul\":1636:1642   */\n      0x00\n        /* \"#utility.yul\":1644:1650   */\n      0x00\n        /* \"#utility.yul\":1693:1695   */\n      0x60\n        /* \"#utility.yul\":1681:1690   */\n      dup5\n        /* \"#utility.yul\":1672:1679   */\n      dup7\n        /* \"#utility.yul\":1668:1691   */\n      sub\n        /* \"#utility.yul\":1664:1696   */\n      slt\n        /* \"#utility.yul\":1661:1780   */\n      iszero\n      tag_183\n      jumpi\n        /* \"#utility.yul\":1699:1778   */\n      tag_184\n      tag_134\n      jump\t// in\n    tag_184:\n        /* \"#utility.yul\":1661:1780   */\n    tag_183:\n        /* \"#utility.yul\":1819:1820   */\n      0x00\n        /* \"#utility.yul\":1844:1897   */\n      tag_185\n        /* \"#utility.yul\":1889:1896   */\n      dup7\n        /* \"#utility.yul\":1880:1886   */\n      dup3\n        /* \"#utility.yul\":1869:1878   */\n      dup8\n        /* \"#utility.yul\":1865:1887   */\n      add\n        /* \"#utility.yul\":1844:1897   */\n      tag_139\n      jump\t// in\n    tag_185:\n        /* \"#utility.yul\":1834:1897   */\n      swap4\n      pop\n        /* \"#utility.yul\":1790:1907   */\n      pop\n        /* \"#utility.yul\":1946:1948   */\n      0x20\n        /* \"#utility.yul\":1972:2025   */\n      tag_186\n        /* \"#utility.yul\":2017:2024   */\n      dup7\n        /* \"#utility.yul\":2008:2014   */\n      dup3\n        /* \"#utility.yul\":1997:2006   */\n      dup8\n        /* \"#utility.yul\":1993:2015   */\n      add\n        /* \"#utility.yul\":1972:2025   */\n      tag_142\n      jump\t// in\n    tag_186:\n        /* \"#utility.yul\":1962:2025   */\n      swap3\n      pop\n        /* \"#utility.yul\":1917:2035   */\n      pop\n        /* \"#utility.yul\":2074:2076   */\n      0x40\n        /* \"#utility.yul\":2100:2150   */\n      tag_187\n        /* \"#utility.yul\":2142:2149   */\n      dup7\n        /* \"#utility.yul\":2133:2139   */\n      dup3\n        /* \"#utility.yul\":2122:2131   */\n      dup8\n        /* \"#utility.yul\":2118:2140   */\n      add\n        /* \"#utility.yul\":2100:2150   */\n      tag_145\n      jump\t// in\n    tag_187:\n        /* \"#utility.yul\":2090:2150   */\n      swap2\n      pop\n        /* \"#utility.yul\":2045:2160   */\n      pop\n        /* \"#utility.yul\":1554:2167   */\n      swap3\n      pop\n      swap3\n      pop\n      swap3\n      jump\t// out\n        /* \"#utility.yul\":2173:2502   */\n    tag_21:\n        /* \"#utility.yul\":2232:2238   */\n      0x00\n        /* \"#utility.yul\":2281:2283   */\n      0x20\n        /* \"#utility.yul\":2269:2278   */\n      dup3\n        /* \"#utility.yul\":2260:2267   */\n      dup5\n        /* \"#utility.yul\":2256:2279   */\n      sub\n        /* \"#utility.yul\":2252:2284   */\n      slt\n        /* \"#utility.yul\":2249:2368   */\n      iszero\n      tag_189\n      jumpi\n        /* \"#utility.yul\":2287:2366   */\n      tag_190\n      tag_134\n      jump\t// in\n    tag_190:\n        /* \"#utility.yul\":2249:2368   */\n    tag_189:\n        /* \"#utility.yul\":2407:2408   */\n      0x00\n        /* \"#utility.yul\":2432:2485   */\n      tag_191\n        /* \"#utility.yul\":2477:2484   */\n      dup5\n        /* \"#utility.yul\":2468:2474   */\n      dup3\n        /* \"#utility.yul\":2457:2466   */\n      dup6\n        /* \"#utility.yul\":2453:2475   */\n      add\n        /* \"#utility.yul\":2432:2485   */\n      tag_139\n      jump\t// in\n    tag_191:\n        /* \"#utility.yul\":2422:2485   */\n      swap2\n      pop\n        /* \"#utility.yul\":2378:2495   */\n      pop\n        /* \"#utility.yul\":2173:2502   */\n      swap3\n      swap2\n      pop\n      pop\n      jump\t// out\n        /* \"#utility.yul\":2508:2982   */\n    tag_26:\n        /* \"#utility.yul\":2576:2582   */\n      0x00\n        /* \"#utility.yul\":2584:2590   */\n      0x00\n        /* \"#utility.yul\":2633:2635   */\n      0x40\n        /* \"#utility.yul\":2621:2630   */\n      dup4\n        /* \"#utility.yul\":2612:2619   */\n      dup6\n        /* \"#utility.yul\":2608:2631   */\n      sub\n        /* \"#utility.yul\":2604:2636   */\n      slt\n        /* \"#utility.yul\":2601:2720   */\n      iszero\n      tag_193\n      jumpi\n        /* \"#utility.yul\":2639:2718   */\n      tag_194\n      tag_134\n      jump\t// in\n    tag_194:\n        /* \"#utility.yul\":2601:2720   */\n    tag_193:\n        /* \"#utility.yul\":2759:2760   */\n      0x00\n        /* \"#utility.yul\":2784:2837   */\n      tag_195\n        /* \"#utility.yul\":2829:2836   */\n      dup6\n        /* \"#utility.yul\":2820:2826   */\n      dup3\n        /* \"#utility.yul\":2809:2818   */\n      dup7\n        /* \"#utility.yul\":2805:2827   */\n      add\n        /* \"#utility.yul\":2784:2837   */\n      tag_139\n      jump\t// in\n    tag_195:\n        /* \"#utility.yul\":2774:2837   */\n      swap3\n      pop\n        /* \"#utility.yul\":2730:2847   */\n      pop\n        /* \"#utility.yul\":2886:2888   */\n      0x20\n        /* \"#utility.yul\":2912:2965   */\n      tag_196\n        /* \"#utility.yul\":2957:2964   */\n      dup6\n        /* \"#utility.yul\":2948:2954   */\n      dup3\n        /* \"#utility.yul\":2937:2946   */\n      dup7\n        /* \"#utility.yul\":2933:2955   */\n      add\n        /* \"#utility.yul\":2912:2965   */\n      tag_142\n      jump\t// in\n    tag_196:\n        /* \"#utility.yul\":2902:2965   */\n      swap2\n      pop\n        /* \"#utility.yul\":2857:2975   */\n      pop\n        /* \"#utility.yul\":2508:2982   */\n      swap3\n      pop\n      swap3\n      swap1\n      pop\n      jump\t// out\n        /* \"#utility.yul\":2988:3106   */\n    tag_146:\n        /* \"#utility.yul\":3075:3099   */\n      tag_198\n        /* \"#utility.yul\":3093:3098   */\n      dup2\n        /* \"#utility.yul\":3075:3099   */\n      tag_137\n      jump\t// in\n    tag_198:\n        /* \"#utility.yul\":3070:3073   */\n      dup3\n        /* \"#utility.yul\":3063:3100   */\n      mstore\n        /* \"#utility.yul\":2988:3106   */\n      pop\n      pop\n      jump\t// out\n        /* \"#utility.yul\":3112:3334   */\n    tag_29:\n        /* \"#utility.yul\":3205:3209   */\n      0x00\n        /* \"#utility.yul\":3243:3245   */\n      0x20\n        /* \"#utility.yul\":3232:3241   */\n      dup3\n        /* \"#utility.yul\":3228:3246   */\n      add\n        /* \"#utility.yul\":3220:3246   */\n      swap1\n      pop\n        /* \"#utility.yul\":3256:3327   */\n      tag_200\n        /* \"#utility.yul\":3324:3325   */\n      0x00\n        /* \"#utility.yul\":3313:3322   */\n      dup4\n        /* \"#utility.yul\":3309:3326   */\n      add\n        /* \"#utility.yul\":3300:3306   */\n      dup5\n        /* \"#utility.yul\":3256:3327   */\n      tag_146\n      jump\t// in\n    tag_200:\n        /* \"#utility.yul\":3112:3334   */\n      swap3\n      swap2\n      pop\n      pop\n      jump\t// out\n        /* \"#utility.yul\":3340:3458   */\n    tag_147:\n        /* \"#utility.yul\":3427:3451   */\n      tag_202\n        /* \"#utility.yul\":3445:3450   */\n      dup2\n        /* \"#utility.yul\":3427:3451   */\n      tag_140\n      jump\t// in\n    tag_202:\n        /* \"#utility.yul\":3422:3425   */\n      dup3\n        /* \"#utility.yul\":3415:3452   */\n      mstore\n        /* \"#utility.yul\":3340:3458   */\n      pop\n      pop\n      jump\t// out\n        /* \"#utility.yul\":3464:3573   */\n    tag_148:\n        /* \"#utility.yul\":3545:3566   */\n      tag_204\n        /* \"#utility.yul\":3560:3565   */\n      dup2\n        /* \"#utility.yul\":3545:3566   */\n      tag_143\n      jump\t// in\n    tag_204:\n        /* \"#utility.yul\":3540:3543   */\n      dup3\n        /* \"#utility.yul\":3533:3567   */\n      mstore\n        /* \"#utility.yul\":3464:3573   */\n      pop\n      pop\n      jump\t// out\n        /* \"#utility.yul\":3579:4009   */\n    tag_35:\n        /* \"#utility.yul\":3722:3726   */\n      0x00\n        /* \"#utility.yul\":3760:3762   */\n      0x60\n        /* \"#utility.yul\":3749:3758   */\n      dup3\n        /* \"#utility.yul\":3745:3763   */\n      add\n        /* \"#utility.yul\":3737:3763   */\n      swap1\n      pop\n        /* \"#utility.yul\":3773:3844   */\n      tag_206\n        /* \"#utility.yul\":3841:3842   */\n      0x00\n        /* \"#utility.yul\":3830:3839   */\n      dup4\n        /* \"#utility.yul\":3826:3843   */\n      add\n        /* \"#utility.yul\":3817:3823   */\n      dup7\n        /* \"#utility.yul\":3773:3844   */\n      tag_147\n      jump\t// in\n    tag_206:\n        /* \"#utility.yul\":3854:3920   */\n      tag_207\n        /* \"#utility.yul\":3916:3918   */\n      0x20\n        /* \"#utility.yul\":3905:3914   */\n      dup4\n        /* \"#utility.yul\":3901:3919   */\n      add\n        /* \"#utility.yul\":3892:3898   */\n      dup6\n        /* \"#utility.yul\":3854:3920   */\n      tag_148\n      jump\t// in\n    tag_207:\n        /* \"#utility.yul\":3930:4002   */\n      tag_208\n        /* \"#utility.yul\":3998:4000   */\n      0x40\n        /* \"#utility.yul\":3987:3996   */\n      dup4\n        /* \"#utility.yul\":3983:4001   */\n      add\n        /* \"#utility.yul\":3974:3980   */\n      dup5\n        /* \"#utility.yul\":3930:4002   */\n      tag_147\n      jump\t// in\n    tag_208:\n        /* \"#utility.yul\":3579:4009   */\n      swap5\n      swap4\n      pop\n      pop\n      pop\n      pop\n      jump\t// out\n        /* \"#utility.yul\":4015:4132   */\n    tag_149:\n        /* \"#utility.yul\":4124:4125   */\n      0x00\n        /* \"#utility.yul\":4121:4122   */\n      0x00\n        /* \"#utility.yul\":4114:4126   */\n      revert\n        /* \"#utility.yul\":4138:4255   */\n    tag_150:\n        /* \"#utility.yul\":4247:4248   */\n      0x00\n        /* \"#utility.yul\":4244:4245   */\n      0x00\n        /* \"#utility.yul\":4237:4249   */\n      revert\n        /* \"#utility.yul\":4261:4378   */\n    tag_151:\n        /* \"#utility.yul\":4370:4371   */\n      0x00\n        /* \"#utility.yul\":4367:4368   */\n      0x00\n        /* \"#utility.yul\":4360:4372   */\n      revert\n        /* \"#utility.yul\":4397:4949   */\n    tag_152:\n        /* \"#utility.yul\":4454:4462   */\n      0x00\n        /* \"#utility.yul\":4464:4470   */\n      0x00\n        /* \"#utility.yul\":4514:4517   */\n      dup4\n        /* \"#utility.yul\":4507:4511   */\n      0x1f\n        /* \"#utility.yul\":4499:4505   */\n      dup5\n        /* \"#utility.yul\":4495:4512   */\n      add\n        /* \"#utility.yul\":4491:4518   */\n      slt\n        /* \"#utility.yul\":4481:4603   */\n      tag_213\n      jumpi\n        /* \"#utility.yul\":4522:4601   */\n      tag_214\n      tag_149\n      jump\t// in\n    tag_214:\n        /* \"#utility.yul\":4481:4603   */\n    tag_213:\n        /* \"#utility.yul\":4635:4641   */\n      dup3\n        /* \"#utility.yul\":4622:4642   */\n      calldataload\n        /* \"#utility.yul\":4612:4642   */\n      swap1\n      pop\n        /* \"#utility.yul\":4665:4683   */\n      0xffffffffffffffff\n        /* \"#utility.yul\":4657:4663   */\n      dup2\n        /* \"#utility.yul\":4654:4684   */\n      gt\n        /* \"#utility.yul\":4651:4768   */\n      iszero\n      tag_215\n      jumpi\n        /* \"#utility.yul\":4687:4766   */\n      tag_216\n      tag_150\n      jump\t// in\n    tag_216:\n        /* \"#utility.yul\":4651:4768   */\n    tag_215:\n        /* \"#utility.yul\":4801:4805   */\n      0x20\n        /* \"#utility.yul\":4793:4799   */\n      dup4\n        /* \"#utility.yul\":4789:4806   */\n      add\n        /* \"#utility.yul\":4777:4806   */\n      swap2\n      pop\n        /* \"#utility.yul\":4855:4858   */\n      dup4\n        /* \"#utility.yul\":4847:4851   */\n      0x01\n        /* \"#utility.yul\":4839:4845   */\n      dup3\n        /* \"#utility.yul\":4835:4852   */\n      mul\n        /* \"#utility.yul\":4825:4833   */\n      dup4\n        /* \"#utility.yul\":4821:4853   */\n      add\n        /* \"#utility.yul\":4818:4859   */\n      gt\n        /* \"#utility.yul\":4815:4943   */\n      iszero\n      tag_217\n      jumpi\n        /* \"#utility.yul\":4862:4941   */\n      tag_218\n      tag_151\n      jump\t// in\n    tag_218:\n        /* \"#utility.yul\":4815:4943   */\n    tag_217:\n        /* \"#utility.yul\":4397:4949   */\n      swap3\n      pop\n      swap3\n      swap1\n      pop\n      jump\t// out\n        /* \"#utility.yul\":4955:5627   */\n    tag_53:\n        /* \"#utility.yul\":5034:5040   */\n      0x00\n        /* \"#utility.yul\":5042:5048   */\n      0x00\n        /* \"#utility.yul\":5050:5056   */\n      0x00\n        /* \"#utility.yul\":5099:5101   */\n      0x40\n        /* \"#utility.yul\":5087:5096   */\n      dup5\n        /* \"#utility.yul\":5078:5085   */\n      dup7\n        /* \"#utility.yul\":5074:5097   */\n      sub\n        /* \"#utility.yul\":5070:5102   */\n      slt\n        /* \"#utility.yul\":5067:5186   */\n      iszero\n      tag_220\n      jumpi\n        /* \"#utility.yul\":5105:5184   */\n      tag_221\n      tag_134\n      jump\t// in\n    tag_221:\n        /* \"#utility.yul\":5067:5186   */\n    tag_220:\n        /* \"#utility.yul\":5225:5226   */\n      0x00\n        /* \"#utility.yul\":5250:5303   */\n      tag_222\n        /* \"#utility.yul\":5295:5302   */\n      dup7\n        /* \"#utility.yul\":5286:5292   */\n      dup3\n        /* \"#utility.yul\":5275:5284   */\n      dup8\n        /* \"#utility.yul\":5271:5293   */\n      add\n        /* \"#utility.yul\":5250:5303   */\n      tag_139\n      jump\t// in\n    tag_222:\n        /* \"#utility.yul\":5240:5303   */\n      swap4\n      pop\n        /* \"#utility.yul\":5196:5313   */\n      pop\n        /* \"#utility.yul\":5380:5382   */\n      0x20\n        /* \"#utility.yul\":5369:5378   */\n      dup5\n        /* \"#utility.yul\":5365:5383   */\n      add\n        /* \"#utility.yul\":5352:5384   */\n      calldataload\n        /* \"#utility.yul\":5411:5429   */\n      0xffffffffffffffff\n        /* \"#utility.yul\":5403:5409   */\n      dup2\n        /* \"#utility.yul\":5400:5430   */\n      gt\n        /* \"#utility.yul\":5397:5514   */\n      iszero\n      tag_223\n      jumpi\n        /* \"#utility.yul\":5433:5512   */\n      tag_224\n      tag_135\n      jump\t// in\n    tag_224:\n        /* \"#utility.yul\":5397:5514   */\n    tag_223:\n        /* \"#utility.yul\":5546:5610   */\n      tag_225\n        /* \"#utility.yul\":5602:5609   */\n      dup7\n        /* \"#utility.yul\":5593:5599   */\n      dup3\n        /* \"#utility.yul\":5582:5591   */\n      dup8\n        /* \"#utility.yul\":5578:5600   */\n      add\n        /* \"#utility.yul\":5546:5610   */\n      tag_152\n      jump\t// in\n    tag_225:\n        /* \"#utility.yul\":5528:5610   */\n      swap3\n      pop\n      swap3\n      pop\n        /* \"#utility.yul\":5323:5620   */\n      pop\n        /* \"#utility.yul\":4955:5627   */\n      swap3\n      pop\n      swap3\n      pop\n      swap3\n      jump\t// out\n        /* \"#utility.yul\":5633:6174   */\n    tag_65:\n        /* \"#utility.yul\":5804:5808   */\n      0x00\n        /* \"#utility.yul\":5842:5845   */\n      0x80\n        /* \"#utility.yul\":5831:5840   */\n      dup3\n        /* \"#utility.yul\":5827:5846   */\n      add\n        /* \"#utility.yul\":5819:5846   */\n      swap1\n      pop\n        /* \"#utility.yul\":5856:5927   */\n      tag_227\n        /* \"#utility.yul\":5924:5925   */\n      0x00\n        /* \"#utility.yul\":5913:5922   */\n      dup4\n        /* \"#utility.yul\":5909:5926   */\n      add\n        /* \"#utility.yul\":5900:5906   */\n      dup8\n        /* \"#utility.yul\":5856:5927   */\n      tag_146\n      jump\t// in\n    tag_227:\n        /* \"#utility.yul\":5937:6009   */\n      tag_228\n        /* \"#utility.yul\":6005:6007   */\n      0x20\n        /* \"#utility.yul\":5994:6003   */\n      dup4\n        /* \"#utility.yul\":5990:6008   */\n      add\n        /* \"#utility.yul\":5981:5987   */\n      dup7\n        /* \"#utility.yul\":5937:6009   */\n      tag_147\n      jump\t// in\n    tag_228:\n        /* \"#utility.yul\":6019:6085   */\n      tag_229\n        /* \"#utility.yul\":6081:6083   */\n      0x40\n        /* \"#utility.yul\":6070:6079   */\n      dup4\n        /* \"#utility.yul\":6066:6084   */\n      add\n        /* \"#utility.yul\":6057:6063   */\n      dup6\n        /* \"#utility.yul\":6019:6085   */\n      tag_148\n      jump\t// in\n    tag_229:\n        /* \"#utility.yul\":6095:6167   */\n      tag_230\n        /* \"#utility.yul\":6163:6165   */\n      0x60\n        /* \"#utility.yul\":6152:6161   */\n      dup4\n        /* \"#utility.yul\":6148:6166   */\n      add\n        /* \"#utility.yul\":6139:6145   */\n      dup5\n        /* \"#utility.yul\":6095:6167   */\n      tag_147\n      jump\t// in\n    tag_230:\n        /* \"#utility.yul\":5633:6174   */\n      swap6\n      swap5\n      pop\n      pop\n      pop\n      pop\n      pop\n      jump\t// out\n        /* \"#utility.yul\":6180:6610   */\n    tag_71:\n        /* \"#utility.yul\":6323:6327   */\n      0x00\n        /* \"#utility.yul\":6361:6363   */\n      0x60\n        /* \"#utility.yul\":6350:6359   */\n      dup3\n        /* \"#utility.yul\":6346:6364   */\n      add\n        /* \"#utility.yul\":6338:6364   */\n      swap1\n      pop\n        /* \"#utility.yul\":6374:6445   */\n      tag_232\n        /* \"#utility.yul\":6442:6443   */\n      0x00\n        /* \"#utility.yul\":6431:6440   */\n      dup4\n        /* \"#utility.yul\":6427:6444   */\n      add\n        /* \"#utility.yul\":6418:6424   */\n      dup7\n        /* \"#utility.yul\":6374:6445   */\n      tag_146\n      jump\t// in\n    tag_232:\n        /* \"#utility.yul\":6455:6521   */\n      tag_233\n        /* \"#utility.yul\":6517:6519   */\n      0x20\n        /* \"#utility.yul\":6506:6515   */\n      dup4\n        /* \"#utility.yul\":6502:6520   */\n      add\n        /* \"#utility.yul\":6493:6499   */\n      dup6\n        /* \"#utility.yul\":6455:6521   */\n      tag_148\n      jump\t// in\n    tag_233:\n        /* \"#utility.yul\":6531:6603   */\n      tag_234\n        /* \"#utility.yul\":6599:6601   */\n      0x40\n        /* \"#utility.yul\":6588:6597   */\n      dup4\n        /* \"#utility.yul\":6584:6602   */\n      add\n        /* \"#utility.yul\":6575:6581   */\n      dup5\n        /* \"#utility.yul\":6531:6603   */\n      tag_147\n      jump\t// in\n    tag_234:\n        /* \"#utility.yul\":6180:6610   */\n      swap5\n      swap4\n      pop\n      pop\n      pop\n      pop\n      jump\t// out\n        /* \"#utility.yul\":6616:7169   */\n    tag_90:\n        /* \"#utility.yul\":6793:6797   */\n      0x00\n        /* \"#utility.yul\":6831:6834   */\n      0x80\n        /* \"#utility.yul\":6820:6829   */\n      dup3\n        /* \"#utility.yul\":6816:6835   */\n      add\n        /* \"#utility.yul\":6808:6835   */\n      swap1\n      pop\n        /* \"#utility.yul\":6845:6916   */\n      tag_236\n        /* \"#utility.yul\":6913:6914   */\n      0x00\n        /* \"#utility.yul\":6902:6911   */\n      dup4\n        /* \"#utility.yul\":6898:6915   */\n      add\n        /* \"#utility.yul\":6889:6895   */\n      dup8\n        /* \"#utility.yul\":6845:6916   */\n      tag_146\n      jump\t// in\n    tag_236:\n        /* \"#utility.yul\":6926:6998   */\n      tag_237\n        /* \"#utility.yul\":6994:6996   */\n      0x20\n        /* \"#utility.yul\":6983:6992   */\n      dup4\n        /* \"#utility.yul\":6979:6997   */\n      add\n        /* \"#utility.yul\":6970:6976   */\n      dup7\n        /* \"#utility.yul\":6926:6998   */\n      tag_147\n      jump\t// in\n    tag_237:\n        /* \"#utility.yul\":7008:7080   */\n      tag_238\n        /* \"#utility.yul\":7076:7078   */\n      0x40\n        /* \"#utility.yul\":7065:7074   */\n      dup4\n        /* \"#utility.yul\":7061:7079   */\n      add\n        /* \"#utility.yul\":7052:7058   */\n      dup6\n        /* \"#utility.yul\":7008:7080   */\n      tag_147\n      jump\t// in\n    tag_238:\n        /* \"#utility.yul\":7090:7162   */\n      tag_239\n        /* \"#utility.yul\":7158:7160   */\n      0x60\n        /* \"#utility.yul\":7147:7156   */\n      dup4\n        /* \"#utility.yul\":7143:7161   */\n      add\n        /* \"#utility.yul\":7134:7140   */\n      dup5\n        /* \"#utility.yul\":7090:7162   */\n      tag_147\n      jump\t// in\n    tag_239:\n        /* \"#utility.yul\":6616:7169   */\n      swap6\n      swap5\n      pop\n      pop\n      pop\n      pop\n      pop\n      jump\t// out\n        /* \"#utility.yul\":7175:7343   */\n    tag_153:\n        /* \"#utility.yul\":7258:7269   */\n      0x00\n        /* \"#utility.yul\":7292:7298   */\n      dup3\n        /* \"#utility.yul\":7287:7290   */\n      dup3\n        /* \"#utility.yul\":7280:7299   */\n      mstore\n        /* \"#utility.yul\":7332:7336   */\n      0x20\n        /* \"#utility.yul\":7327:7330   */\n      dup3\n        /* \"#utility.yul\":7323:7337   */\n      add\n        /* \"#utility.yul\":7308:7337   */\n      swap1\n      pop\n        /* \"#utility.yul\":7175:7343   */\n      swap3\n      swap2\n      pop\n      pop\n      jump\t// out\n        /* \"#utility.yul\":7349:7497   */\n    tag_154:\n        /* \"#utility.yul\":7447:7453   */\n      dup3\n        /* \"#utility.yul\":7442:7445   */\n      dup2\n        /* \"#utility.yul\":7437:7440   */\n      dup4\n        /* \"#utility.yul\":7424:7454   */\n      calldatacopy\n        /* \"#utility.yul\":7488:7489   */\n      0x00\n        /* \"#utility.yul\":7479:7485   */\n      dup4\n        /* \"#utility.yul\":7474:7477   */\n      dup4\n        /* \"#utility.yul\":7470:7486   */\n      add\n        /* \"#utility.yul\":7463:7490   */\n      mstore\n        /* \"#utility.yul\":7349:7497   */\n      pop\n      pop\n      pop\n      jump\t// out\n        /* \"#utility.yul\":7503:7605   */\n    tag_155:\n        /* \"#utility.yul\":7544:7550   */\n      0x00\n        /* \"#utility.yul\":7595:7597   */\n      0x1f\n        /* \"#utility.yul\":7591:7598   */\n      not\n        /* \"#utility.yul\":7586:7588   */\n      0x1f\n        /* \"#utility.yul\":7579:7584   */\n      dup4\n        /* \"#utility.yul\":7575:7589   */\n      add\n        /* \"#utility.yul\":7571:7599   */\n      and\n        /* \"#utility.yul\":7561:7599   */\n      swap1\n      pop\n        /* \"#utility.yul\":7503:7605   */\n      swap2\n      swap1\n      pop\n      jump\t// out\n        /* \"#utility.yul\":7633:7947   */\n    tag_156:\n        /* \"#utility.yul\":7729:7732   */\n      0x00\n        /* \"#utility.yul\":7750:7820   */\n      tag_244\n        /* \"#utility.yul\":7813:7819   */\n      dup4\n        /* \"#utility.yul\":7808:7811   */\n      dup6\n        /* \"#utility.yul\":7750:7820   */\n      tag_153\n      jump\t// in\n    tag_244:\n        /* \"#utility.yul\":7743:7820   */\n      swap4\n      pop\n        /* \"#utility.yul\":7830:7886   */\n      tag_245\n        /* \"#utility.yul\":7879:7885   */\n      dup4\n        /* \"#utility.yul\":7874:7877   */\n      dup6\n        /* \"#utility.yul\":7867:7872   */\n      dup5\n        /* \"#utility.yul\":7830:7886   */\n      tag_154\n      jump\t// in\n    tag_245:\n        /* \"#utility.yul\":7911:7940   */\n      tag_246\n        /* \"#utility.yul\":7933:7939   */\n      dup4\n        /* \"#utility.yul\":7911:7940   */\n      tag_155\n      jump\t// in\n    tag_246:\n        /* \"#utility.yul\":7906:7909   */\n      dup5\n        /* \"#utility.yul\":7902:7941   */\n      add\n        /* \"#utility.yul\":7895:7941   */\n      swap1\n      pop\n        /* \"#utility.yul\":7633:7947   */\n      swap4\n      swap3\n      pop\n      pop\n      pop\n      jump\t// out\n        /* \"#utility.yul\":7953:8282   */\n    tag_98:\n        /* \"#utility.yul\":8074:8078   */\n      0x00\n        /* \"#utility.yul\":8112:8114   */\n      0x20\n        /* \"#utility.yul\":8101:8110   */\n      dup3\n        /* \"#utility.yul\":8097:8115   */\n      add\n        /* \"#utility.yul\":8089:8115   */\n      swap1\n      pop\n        /* \"#utility.yul\":8161:8170   */\n      dup2\n        /* \"#utility.yul\":8155:8159   */\n      dup2\n        /* \"#utility.yul\":8151:8171   */\n      sub\n        /* \"#utility.yul\":8147:8148   */\n      0x00\n        /* \"#utility.yul\":8136:8145   */\n      dup4\n        /* \"#utility.yul\":8132:8149   */\n      add\n        /* \"#utility.yul\":8125:8172   */\n      mstore\n        /* \"#utility.yul\":8189:8275   */\n      tag_248\n        /* \"#utility.yul\":8270:8274   */\n      dup2\n        /* \"#utility.yul\":8261:8267   */\n      dup5\n        /* \"#utility.yul\":8253:8259   */\n      dup7\n        /* \"#utility.yul\":8189:8275   */\n      tag_156\n      jump\t// in\n    tag_248:\n        /* \"#utility.yul\":8181:8275   */\n      swap1\n      pop\n        /* \"#utility.yul\":7953:8282   */\n      swap4\n      swap3\n      pop\n      pop\n      pop\n      jump\t// out\n        /* \"#utility.yul\":8288:8425   */\n    tag_157:\n        /* \"#utility.yul\":8342:8347   */\n      0x00\n        /* \"#utility.yul\":8373:8379   */\n      dup2\n        /* \"#utility.yul\":8367:8380   */\n      mload\n        /* \"#utility.yul\":8358:8380   */\n      swap1\n      pop\n        /* \"#utility.yul\":8389:8419   */\n      tag_250\n        /* \"#utility.yul\":8413:8418   */\n      dup2\n        /* \"#utility.yul\":8389:8419   */\n      tag_144\n      jump\t// in\n    tag_250:\n        /* \"#utility.yul\":8288:8425   */\n      swap3\n      swap2\n      pop\n      pop\n      jump\t// out\n        /* \"#utility.yul\":8431:8776   */\n    tag_102:\n        /* \"#utility.yul\":8498:8504   */\n      0x00\n        /* \"#utility.yul\":8547:8549   */\n      0x20\n        /* \"#utility.yul\":8535:8544   */\n      dup3\n        /* \"#utility.yul\":8526:8533   */\n      dup5\n        /* \"#utility.yul\":8522:8545   */\n      sub\n        /* \"#utility.yul\":8518:8550   */\n      slt\n        /* \"#utility.yul\":8515:8634   */\n      iszero\n      tag_252\n      jumpi\n        /* \"#utility.yul\":8553:8632   */\n      tag_253\n      tag_134\n      jump\t// in\n    tag_253:\n        /* \"#utility.yul\":8515:8634   */\n    tag_252:\n        /* \"#utility.yul\":8673:8674   */\n      0x00\n        /* \"#utility.yul\":8698:8759   */\n      tag_254\n        /* \"#utility.yul\":8751:8758   */\n      dup5\n        /* \"#utility.yul\":8742:8748   */\n      dup3\n        /* \"#utility.yul\":8731:8740   */\n      dup6\n        /* \"#utility.yul\":8727:8749   */\n      add\n        /* \"#utility.yul\":8698:8759   */\n      tag_157\n      jump\t// in\n    tag_254:\n        /* \"#utility.yul\":8688:8759   */\n      swap2\n      pop\n        /* \"#utility.yul\":8644:8769   */\n      pop\n        /* \"#utility.yul\":8431:8776   */\n      swap3\n      swap2\n      pop\n      pop\n      jump\t// out\n        /* \"#utility.yul\":8782:9335   */\n    tag_109:\n        /* \"#utility.yul\":8959:8963   */\n      0x00\n        /* \"#utility.yul\":8997:9000   */\n      0x80\n        /* \"#utility.yul\":8986:8995   */\n      dup3\n        /* \"#utility.yul\":8982:9001   */\n      add\n        /* \"#utility.yul\":8974:9001   */\n      swap1\n      pop\n        /* \"#utility.yul\":9011:9082   */\n      tag_256\n        /* \"#utility.yul\":9079:9080   */\n      0x00\n        /* \"#utility.yul\":9068:9077   */\n      dup4\n        /* \"#utility.yul\":9064:9081   */\n      add\n        /* \"#utility.yul\":9055:9061   */\n      dup8\n        /* \"#utility.yul\":9011:9082   */\n      tag_146\n      jump\t// in\n    tag_256:\n        /* \"#utility.yul\":9092:9164   */\n      tag_257\n        /* \"#utility.yul\":9160:9162   */\n      0x20\n        /* \"#utility.yul\":9149:9158   */\n      dup4\n        /* \"#utility.yul\":9145:9163   */\n      add\n        /* \"#utility.yul\":9136:9142   */\n      dup7\n        /* \"#utility.yul\":9092:9164   */\n      tag_146\n      jump\t// in\n    tag_257:\n        /* \"#utility.yul\":9174:9246   */\n      tag_258\n        /* \"#utility.yul\":9242:9244   */\n      0x40\n        /* \"#utility.yul\":9231:9240   */\n      dup4\n        /* \"#utility.yul\":9227:9245   */\n      add\n        /* \"#utility.yul\":9218:9224   */\n      dup6\n        /* \"#utility.yul\":9174:9246   */\n      tag_147\n      jump\t// in\n    tag_258:\n        /* \"#utility.yul\":9256:9328   */\n      tag_259\n        /* \"#utility.yul\":9324:9326   */\n      0x60\n        /* \"#utility.yul\":9313:9322   */\n      dup4\n        /* \"#utility.yul\":9309:9327   */\n      add\n        /* \"#utility.yul\":9300:9306   */\n      dup5\n        /* \"#utility.yul\":9256:9328   */\n      tag_147\n      jump\t// in\n    tag_259:\n        /* \"#utility.yul\":8782:9335   */\n      swap6\n      swap5\n      pop\n      pop\n      pop\n      pop\n      pop\n      jump\t// out\n        /* \"#utility.yul\":9341:9673   */\n    tag_131:\n        /* \"#utility.yul\":9462:9466   */\n      0x00\n        /* \"#utility.yul\":9500:9502   */\n      0x40\n        /* \"#utility.yul\":9489:9498   */\n      dup3\n        /* \"#utility.yul\":9485:9503   */\n      add\n        /* \"#utility.yul\":9477:9503   */\n      swap1\n      pop\n        /* \"#utility.yul\":9513:9584   */\n      tag_261\n        /* \"#utility.yul\":9581:9582   */\n      0x00\n        /* \"#utility.yul\":9570:9579   */\n      dup4\n        /* \"#utility.yul\":9566:9583   */\n      add\n        /* \"#utility.yul\":9557:9563   */\n      dup6\n        /* \"#utility.yul\":9513:9584   */\n      tag_147\n      jump\t// in\n    tag_261:\n        /* \"#utility.yul\":9594:9666   */\n      tag_262\n        /* \"#utility.yul\":9662:9664   */\n      0x20\n        /* \"#utility.yul\":9651:9660   */\n      dup4\n        /* \"#utility.yul\":9647:9665   */\n      add\n        /* \"#utility.yul\":9638:9644   */\n      dup5\n        /* \"#utility.yul\":9594:9666   */\n      tag_147\n      jump\t// in\n    tag_262:\n        /* \"#utility.yul\":9341:9673   */\n      swap4\n      swap3\n      pop\n      pop\n      pop\n      jump\t// out\n\n    auxdata: 0xa2646970667358221220f7023bddb333938b8f86dbb82a0883918ee1182440f87ada3a189812c2c533fc64736f6c634300081d0033\n}\n",
				"bytecode": {
					"linkReferences": {},
					"object": "608060405234801561000f575f5ffd5b50335f73ffffffffffffffffffffffffffffffffffffffff168173ffffffffffffffffffffffffffffffffffffffff1603610081575f6040517f1e4fbdf70000000000000000000000000000000000000000000000000000000081526004016100789190610196565b60405180910390fd5b6100908161009660201b60201c565b506101af565b5f5f5f9054906101000a900473ffffffffffffffffffffffffffffffffffffffff169050815f5f6101000a81548173ffffffffffffffffffffffffffffffffffffffff021916908373ffffffffffffffffffffffffffffffffffffffff1602179055508173ffffffffffffffffffffffffffffffffffffffff168173ffffffffffffffffffffffffffffffffffffffff167f8be0079c531659141344cd1fd0a4f28419497f9722a3daafe3b4186f6b6457e060405160405180910390a35050565b5f73ffffffffffffffffffffffffffffffffffffffff82169050919050565b5f61018082610157565b9050919050565b61019081610176565b82525050565b5f6020820190506101a95f830184610187565b92915050565b611210806101bc5f395ff3fe608060405260043610610090575f3560e01c8063715018a611610058578063715018a6146101865780638da5cb5b1461019c57806394be7197146101c6578063e97fac05146101ee578063f2fde38b1461021e57610090565b80630d159b3f1461009457806331a76535146100bc57806345967555146100e45780634d58045314610120578063670cec371461015e575b5f5ffd5b34801561009f575f5ffd5b506100ba60048036038101906100b59190610e08565b610246565b005b3480156100c7575f5ffd5b506100e260048036038101906100dd9190610e58565b61031e565b005b3480156100ef575f5ffd5b5061010a60048036038101906101059190610e83565b610434565b6040516101179190610ed0565b60405180910390f35b34801561012b575f5ffd5b5061014660048036038101906101419190610e58565b61047c565b60405161015593929190610f07565b60405180910390f35b348015610169575f5ffd5b50610184600480360381019061017f9190610e58565b6104ae565b005b348015610191575f5ffd5b5061019a6105c6565b005b3480156101a7575f5ffd5b506101b06105d9565b6040516101bd9190610ed0565b60405180910390f35b3480156101d1575f5ffd5b506101ec60048036038101906101e79190610e83565b610600565b005b61020860048036038101906102039190610f9d565b61074a565b6040516102159190610ed0565b60405180910390f35b348015610229575f5ffd5b50610244600480360381019061023f9190610e58565b610a64565b005b61024e610ae8565b604051806060016040528083815260200182151581526020014281525060025f8573ffffffffffffffffffffffffffffffffffffffff1673ffffffffffffffffffffffffffffffffffffffff1681526020019081526020015f205f820151815f01556020820151816001015f6101000a81548160ff021916908315150217905550604082015181600201559050507f04e5c77ae4e9e5b61ff3abeac1936c96fbd58c0bd1465c73362dccfeb31ee75a838383426040516103119493929190610ffa565b60405180910390a1505050565b610326610ae8565b5f60025f8373ffffffffffffffffffffffffffffffffffffffff1673ffffffffffffffffffffffffffffffffffffffff1681526020019081526020015f20600201541161039f576040517fe87feefd00000000000000000000000000000000000000000000000000000000815260040160405180910390fd5b5f60025f8373ffffffffffffffffffffffffffffffffffffffff1673ffffffffffffffffffffffffffffffffffffffff1681526020019081526020015f206001015f6101000a81548160ff0219169083151502179055507f434ee15f55ff3aeee926d0d2cdc10861189dfdc47305a9ea5d0504102c408515815f426040516104299392919061103d565b60405180910390a150565b6001602052815f5260405f20818154811061044d575f80fd5b905f5260205f20015f915091509054906101000a900473ffffffffffffffffffffffffffffffffffffffff1681565b6002602052805f5260405f205f91509050805f015490806001015f9054906101000a900460ff16908060020154905083565b6104b6610ae8565b5f60025f8373ffffffffffffffffffffffffffffffffffffffff1673ffffffffffffffffffffffffffffffffffffffff1681526020019081526020015f20600201541161052f576040517fe87feefd00000000000000000000000000000000000000000000000000000000815260040160405180910390fd5b600160025f8373ffffffffffffffffffffffffffffffffffffffff1673ffffffffffffffffffffffffffffffffffffffff1681526020019081526020015f206001015f6101000a81548160ff0219169083151502179055507f434ee15f55ff3aeee926d0d2cdc10861189dfdc47305a9ea5d0504102c408515816001426040516105bb9392919061103d565b60405180910390a150565b6105ce610ae8565b6105d75f610b6f565b565b5f5f5f9054906101000a900473ffffffffffffffffffffffffffffffffffffffff16905090565b610608610ae8565b5f60025f8473ffffffffffffffffffffffffffffffffffffffff1673ffffffffffffffffffffffffffffffffffffffff1681526020019081526020015f206002015411610681576040517fe87feefd00000000000000000000000000000000000000000000000000000000815260040160405180910390fd5b5f60025f8473ffffffffffffffffffffffffffffffffffffffff1673ffffffffffffffffffffffffffffffffffffffff1681526020019081526020015f205f015490508160025f8573ffffffffffffffffffffffffffffffffffffffff1673ffffffffffffffffffffffffffffffffffffffff1681526020019081526020015f205f01819055507fae754cde05a89e748dcec68ddb7845dfa44d041f114d95bf8d37338b6e0c9a5d8382844260405161073d9493929190611072565b60405180910390a1505050565b5f5f60025f8673ffffffffffffffffffffffffffffffffffffffff1673ffffffffffffffffffffffffffffffffffffffff1681526020019081526020015f206040518060600160405290815f8201548152602001600182015f9054906101000a900460ff16151515158152602001600282015481525050905080602001516107fe576040517f4e00e51300000000000000000000000000000000000000000000000000000000815260040160405180910390fd5b805f015134101561083b576040517fc1463a4000000000000000000000000000000000000000000000000000000000815260040160405180910390fd5b5f816040015111610878576040517fe87feefd00000000000000000000000000000000000000000000000000000000815260040160405180910390fd5b5f61088286610c30565b90508073ffffffffffffffffffffffffffffffffffffffff1663439fab9186866040518363ffffffff1660e01b81526004016108bf92919061110f565b6020604051808303815f875af11580156108db573d5f5f3e3d5ffd5b505050506040513d601f19601f820116820180604052508101906108ff9190611145565b610935576040517f19b991a800000000000000000000000000000000000000000000000000000000815260040160405180910390fd5b61093d6105d9565b73ffffffffffffffffffffffffffffffffffffffff166108fc3490811502906040515f60405180830381858888f1935050505015801561097f573d5f5f3e3d5ffd5b5060015f3373ffffffffffffffffffffffffffffffffffffffff1673ffffffffffffffffffffffffffffffffffffffff1681526020019081526020015f2081908060018154018082558091505060019003905f5260205f20015f9091909190916101000a81548173ffffffffffffffffffffffffffffffffffffffff021916908373ffffffffffffffffffffffffffffffffffffffff1602179055507f4335dea2303bafa4bcabf73562ea6cf86520c11cda707391eac6afaf50c46ab833823442604051610a509493929190611170565b60405180910390a180925050509392505050565b610a6c610ae8565b5f73ffffffffffffffffffffffffffffffffffffffff168173ffffffffffffffffffffffffffffffffffffffff1603610adc575f6040517f1e4fbdf7000000000000000000000000000000000000000000000000000000008152600401610ad39190610ed0565b60405180910390fd5b610ae581610b6f565b50565b610af0610c42565b73ffffffffffffffffffffffffffffffffffffffff16610b0e6105d9565b73ffffffffffffffffffffffffffffffffffffffff1614610b6d57610b31610c42565b6040517f118cdaa7000000000000000000000000000000000000000000000000000000008152600401610b649190610ed0565b60405180910390fd5b565b5f5f5f9054906101000a900473ffffffffffffffffffffffffffffffffffffffff169050815f5f6101000a81548173ffffffffffffffffffffffffffffffffffffffff021916908373ffffffffffffffffffffffffffffffffffffffff1602179055508173ffffffffffffffffffffffffffffffffffffffff168173ffffffffffffffffffffffffffffffffffffffff167f8be0079c531659141344cd1fd0a4f28419497f9722a3daafe3b4186f6b6457e060405160405180910390a35050565b5f610c3b825f610c49565b9050919050565b5f33905090565b5f81471015610c915747826040517fcf479181000000000000000000000000000000000000000000000000000000008152600401610c889291906111b3565b60405180910390fd5b763d602d80600a3d3981f3363d3d373d3d3d363d730000008360601b60e81c175f526e5af43d82803e903d91602b57fd5bf38360781b176020526037600983f090505f73ffffffffffffffffffffffffffffffffffffffff168173ffffffffffffffffffffffffffffffffffffffff1603610d38576040517fb06ebf3d00000000000000000000000000000000000000000000000000000000815260040160405180910390fd5b92915050565b5f5ffd5b5f5ffd5b5f73ffffffffffffffffffffffffffffffffffffffff82169050919050565b5f610d6f82610d46565b9050919050565b610d7f81610d65565b8114610d89575f5ffd5b50565b5f81359050610d9a81610d76565b92915050565b5f819050919050565b610db281610da0565b8114610dbc575f5ffd5b50565b5f81359050610dcd81610da9565b92915050565b5f8115159050919050565b610de781610dd3565b8114610df1575f5ffd5b50565b5f81359050610e0281610dde565b92915050565b5f5f5f60608486031215610e1f57610e1e610d3e565b5b5f610e2c86828701610d8c565b9350506020610e3d86828701610dbf565b9250506040610e4e86828701610df4565b9150509250925092565b5f60208284031215610e6d57610e6c610d3e565b5b5f610e7a84828501610d8c565b91505092915050565b5f5f60408385031215610e9957610e98610d3e565b5b5f610ea685828601610d8c565b9250506020610eb785828601610dbf565b9150509250929050565b610eca81610d65565b82525050565b5f602082019050610ee35f830184610ec1565b92915050565b610ef281610da0565b82525050565b610f0181610dd3565b82525050565b5f606082019050610f1a5f830186610ee9565b610f276020830185610ef8565b610f346040830184610ee9565b949350505050565b5f5ffd5b5f5ffd5b5f5ffd5b5f5f83601f840112610f5d57610f5c610f3c565b5b8235905067ffffffffffffffff811115610f7a57610f79610f40565b5b602083019150836001820283011115610f9657610f95610f44565b5b9250929050565b5f5f5f60408486031215610fb457610fb3610d3e565b5b5f610fc186828701610d8c565b935050602084013567ffffffffffffffff811115610fe257610fe1610d42565b5b610fee86828701610f48565b92509250509250925092565b5f60808201905061100d5f830187610ec1565b61101a6020830186610ee9565b6110276040830185610ef8565b6110346060830184610ee9565b95945050505050565b5f6060820190506110505f830186610ec1565b61105d6020830185610ef8565b61106a6040830184610ee9565b949350505050565b5f6080820190506110855f830187610ec1565b6110926020830186610ee9565b61109f6040830185610ee9565b6110ac6060830184610ee9565b95945050505050565b5f82825260208201905092915050565b828183375f83830152505050565b5f601f19601f8301169050919050565b5f6110ee83856110b5565b93506110fb8385846110c5565b611104836110d3565b840190509392505050565b5f6020820190508181035f8301526111288184866110e3565b90509392505050565b5f8151905061113f81610dde565b92915050565b5f6020828403121561115a57611159610d3e565b5b5f61116784828501611131565b91505092915050565b5f6080820190506111835f830187610ec1565b6111906020830186610ec1565b61119d6040830185610ee9565b6111aa6060830184610ee9565b95945050505050565b5f6040820190506111c65f830185610ee9565b6111d36020830184610ee9565b939250505056fea2646970667358221220f7023bddb333938b8f86dbb82a0883918ee1182440f87ada3a189812c2c533fc64736f6c634300081d0033",
					"opcodes": "PUSH1 0x80 PUSH1 0x40 MSTORE CALLVALUE DUP1 ISZERO PUSH2 0xF JUMPI PUSH0 PUSH0 REVERT JUMPDEST POP CALLER PUSH0 PUSH20 0xFFFFFFFFFFFFFFFFFFFFFFFFFFFFFFFFFFFFFFFF AND DUP2 PUSH20 0xFFFFFFFFFFFFFFFFFFFFFFFFFFFFFFFFFFFFFFFF AND SUB PUSH2 0x81 JUMPI PUSH0 PUSH1 0x40 MLOAD PUSH32 0x1E4FBDF700000000000000000000000000000000000000000000000000000000 DUP2 MSTORE PUSH1 0x4 ADD PUSH2 0x78 SWAP2 SWAP1 PUSH2 0x196 JUMP JUMPDEST PUSH1 0x40 MLOAD DUP1 SWAP2 SUB SWAP1 REVERT JUMPDEST PUSH2 0x90 DUP2 PUSH2 0x96 PUSH1 0x20 SHL PUSH1 0x20 SHR JUMP JUMPDEST POP PUSH2 0x1AF JUMP JUMPDEST PUSH0 PUSH0 PUSH0 SWAP1 SLOAD SWAP1 PUSH2 0x100 EXP SWAP1 DIV PUSH20 0xFFFFFFFFFFFFFFFFFFFFFFFFFFFFFFFFFFFFFFFF AND SWAP1 POP DUP2 PUSH0 PUSH0 PUSH2 0x100 EXP DUP2 SLOAD DUP2 PUSH20 0xFFFFFFFFFFFFFFFFFFFFFFFFFFFFFFFFFFFFFFFF MUL NOT AND SWAP1 DUP4 PUSH20 0xFFFFFFFFFFFFFFFFFFFFFFFFFFFFFFFFFFFFFFFF AND MUL OR SWAP1 SSTORE POP DUP2 PUSH20 0xFFFFFFFFFFFFFFFFFFFFFFFFFFFFFFFFFFFFFFFF AND DUP2 PUSH20 0xFFFFFFFFFFFFFFFFFFFFFFFFFFFFFFFFFFFFFFFF AND PUSH32 0x8BE0079C531659141344CD1FD0A4F28419497F9722A3DAAFE3B4186F6B6457E0 PUSH1 0x40 MLOAD PUSH1 0x40 MLOAD DUP1 SWAP2 SUB SWAP1 LOG3 POP POP JUMP JUMPDEST PUSH0 PUSH20 0xFFFFFFFFFFFFFFFFFFFFFFFFFFFFFFFFFFFFFFFF DUP3 AND SWAP1 POP SWAP2 SWAP1 POP JUMP JUMPDEST PUSH0 PUSH2 0x180 DUP3 PUSH2 0x157 JUMP JUMPDEST SWAP1 POP SWAP2 SWAP1 POP JUMP JUMPDEST PUSH2 0x190 DUP2 PUSH2 0x176 JUMP JUMPDEST DUP3 MSTORE POP POP JUMP JUMPDEST PUSH0 PUSH1 0x20 DUP3 ADD SWAP1 POP PUSH2 0x1A9 PUSH0 DUP4 ADD DUP5 PUSH2 0x187 JUMP JUMPDEST SWAP3 SWAP2 POP POP JUMP JUMPDEST PUSH2 0x1210 DUP1 PUSH2 0x1BC PUSH0 CODECOPY PUSH0 RETURN INVALID PUSH1 0x80 PUSH1 0x40 MSTORE PUSH1 0x4 CALLDATASIZE LT PUSH2 0x90 JUMPI PUSH0 CALLDATALOAD PUSH1 0xE0 SHR DUP1 PUSH4 0x715018A6 GT PUSH2 0x58 JUMPI DUP1 PUSH4 0x715018A6 EQ PUSH2 0x186 JUMPI DUP1 PUSH4 0x8DA5CB5B EQ PUSH2 0x19C JUMPI DUP1 PUSH4 0x94BE7197 EQ PUSH2 0x1C6 JUMPI DUP1 PUSH4 0xE97FAC05 EQ PUSH2 0x1EE JUMPI DUP1 PUSH4 0xF2FDE38B EQ PUSH2 0x21E JUMPI PUSH2 0x90 JUMP JUMPDEST DUP1 PUSH4 0xD159B3F EQ PUSH2 0x94 JUMPI DUP1 PUSH4 0x31A76535 EQ PUSH2 0xBC JUMPI DUP1 PUSH4 0x45967555 EQ PUSH2 0xE4 JUMPI DUP1 PUSH4 0x4D580453 EQ PUSH2 0x120 JUMPI DUP1 PUSH4 0x670CEC37 EQ PUSH2 0x15E JUMPI JUMPDEST PUSH0 PUSH0 REVERT JUMPDEST CALLVALUE DUP1 ISZERO PUSH2 0x9F JUMPI PUSH0 PUSH0 REVERT JUMPDEST POP PUSH2 0xBA PUSH1 0x4 DUP1 CALLDATASIZE SUB DUP2 ADD SWAP1 PUSH2 0xB5 SWAP2 SWAP1 PUSH2 0xE08 JUMP JUMPDEST PUSH2 0x246 JUMP JUMPDEST STOP JUMPDEST CALLVALUE DUP1 ISZERO PUSH2 0xC7 JUMPI PUSH0 PUSH0 REVERT JUMPDEST POP PUSH2 0xE2 PUSH1 0x4 DUP1 CALLDATASIZE SUB DUP2 ADD SWAP1 PUSH2 0xDD SWAP2 SWAP1 PUSH2 0xE58 JUMP JUMPDEST PUSH2 0x31E JUMP JUMPDEST STOP JUMPDEST CALLVALUE DUP1 ISZERO PUSH2 0xEF JUMPI PUSH0 PUSH0 REVERT JUMPDEST POP PUSH2 0x10A PUSH1 0x4 DUP1 CALLDATASIZE SUB DUP2 ADD SWAP1 PUSH2 0x105 SWAP2 SWAP1 PUSH2 0xE83 JUMP JUMPDEST PUSH2 0x434 JUMP JUMPDEST PUSH1 0x40 MLOAD PUSH2 0x117 SWAP2 SWAP1 PUSH2 0xED0 JUMP JUMPDEST PUSH1 0x40 MLOAD DUP1 SWAP2 SUB SWAP1 RETURN JUMPDEST CALLVALUE DUP1 ISZERO PUSH2 0x12B JUMPI PUSH0 PUSH0 REVERT JUMPDEST POP PUSH2 0x146 PUSH1 0x4 DUP1 CALLDATASIZE SUB DUP2 ADD SWAP1 PUSH2 0x141 SWAP2 SWAP1 PUSH2 0xE58 JUMP JUMPDEST PUSH2 0x47C JUMP JUMPDEST PUSH1 0x40 MLOAD PUSH2 0x155 SWAP4 SWAP3 SWAP2 SWAP1 PUSH2 0xF07 JUMP JUMPDEST PUSH1 0x40 MLOAD DUP1 SWAP2 SUB SWAP1 RETURN JUMPDEST CALLVALUE DUP1 ISZERO PUSH2 0x169 JUMPI PUSH0 PUSH0 REVERT JUMPDEST POP PUSH2 0x184 PUSH1 0x4 DUP1 CALLDATASIZE SUB DUP2 ADD SWAP1 PUSH2 0x17F SWAP2 SWAP1 PUSH2 0xE58 JUMP JUMPDEST PUSH2 0x4AE JUMP JUMPDEST STOP JUMPDEST CALLVALUE DUP1 ISZERO PUSH2 0x191 JUMPI PUSH0 PUSH0 REVERT JUMPDEST POP PUSH2 0x19A PUSH2 0x5C6 JUMP JUMPDEST STOP JUMPDEST CALLVALUE DUP1 ISZERO PUSH2 0x1A7 JUMPI PUSH0 PUSH0 REVERT JUMPDEST POP PUSH2 0x1B0 PUSH2 0x5D9 JUMP JUMPDEST PUSH1 0x40 MLOAD PUSH2 0x1BD SWAP2 SWAP1 PUSH2 0xED0 JUMP JUMPDEST PUSH1 0x40 MLOAD DUP1 SWAP2 SUB SWAP1 RETURN JUMPDEST CALLVALUE DUP1 ISZERO PUSH2 0x1D1 JUMPI PUSH0 PUSH0 REVERT JUMPDEST POP PUSH2 0x1EC PUSH1 0x4 DUP1 CALLDATASIZE SUB DUP2 ADD SWAP1 PUSH2 0x1E7 SWAP2 SWAP1 PUSH2 0xE83 JUMP JUMPDEST PUSH2 0x600 JUMP JUMPDEST STOP JUMPDEST PUSH2 0x208 PUSH1 0x4 DUP1 CALLDATASIZE SUB DUP2 ADD SWAP1 PUSH2 0x203 SWAP2 SWAP1 PUSH2 0xF9D JUMP JUMPDEST PUSH2 0x74A JUMP JUMPDEST PUSH1 0x40 MLOAD PUSH2 0x215 SWAP2 SWAP1 PUSH2 0xED0 JUMP JUMPDEST PUSH1 0x40 MLOAD DUP1 SWAP2 SUB SWAP1 RETURN JUMPDEST CALLVALUE DUP1 ISZERO PUSH2 0x229 JUMPI PUSH0 PUSH0 REVERT JUMPDEST POP PUSH2 0x244 PUSH1 0x4 DUP1 CALLDATASIZE SUB DUP2 ADD SWAP1 PUSH2 0x23F SWAP2 SWAP1 PUSH2 0xE58 JUMP JUMPDEST PUSH2 0xA64 JUMP JUMPDEST STOP JUMPDEST PUSH2 0x24E PUSH2 0xAE8 JUMP JUMPDEST PUSH1 0x40 MLOAD DUP1 PUSH1 0x60 ADD PUSH1 0x40 MSTORE DUP1 DUP4 DUP2 MSTORE PUSH1 0x20 ADD DUP3 ISZERO ISZERO DUP2 MSTORE PUSH1 0x20 ADD TIMESTAMP DUP2 MSTORE POP PUSH1 0x2 PUSH0 DUP6 PUSH20 0xFFFFFFFFFFFFFFFFFFFFFFFFFFFFFFFFFFFFFFFF AND PUSH20 0xFFFFFFFFFFFFFFFFFFFFFFFFFFFFFFFFFFFFFFFF AND DUP2 MSTORE PUSH1 0x20 ADD SWAP1 DUP2 MSTORE PUSH1 0x20 ADD PUSH0 KECCAK256 PUSH0 DUP3 ADD MLOAD DUP2 PUSH0 ADD SSTORE PUSH1 0x20 DUP3 ADD MLOAD DUP2 PUSH1 0x1 ADD PUSH0 PUSH2 0x100 EXP DUP2 SLOAD DUP2 PUSH1 0xFF MUL NOT AND SWAP1 DUP4 ISZERO ISZERO MUL OR SWAP1 SSTORE POP PUSH1 0x40 DUP3 ADD MLOAD DUP2 PUSH1 0x2 ADD SSTORE SWAP1 POP POP PUSH32 0x4E5C77AE4E9E5B61FF3ABEAC1936C96FBD58C0BD1465C73362DCCFEB31EE75A DUP4 DUP4 DUP4 TIMESTAMP PUSH1 0x40 MLOAD PUSH2 0x311 SWAP5 SWAP4 SWAP3 SWAP2 SWAP1 PUSH2 0xFFA JUMP JUMPDEST PUSH1 0x40 MLOAD DUP1 SWAP2 SUB SWAP1 LOG1 POP POP POP JUMP JUMPDEST PUSH2 0x326 PUSH2 0xAE8 JUMP JUMPDEST PUSH0 PUSH1 0x2 PUSH0 DUP4 PUSH20 0xFFFFFFFFFFFFFFFFFFFFFFFFFFFFFFFFFFFFFFFF AND PUSH20 0xFFFFFFFFFFFFFFFFFFFFFFFFFFFFFFFFFFFFFFFF AND DUP2 MSTORE PUSH1 0x20 ADD SWAP1 DUP2 MSTORE PUSH1 0x20 ADD PUSH0 KECCAK256 PUSH1 0x2 ADD SLOAD GT PUSH2 0x39F JUMPI PUSH1 0x40 MLOAD PUSH32 0xE87FEEFD00000000000000000000000000000000000000000000000000000000 DUP2 MSTORE PUSH1 0x4 ADD PUSH1 0x40 MLOAD DUP1 SWAP2 SUB SWAP1 REVERT JUMPDEST PUSH0 PUSH1 0x2 PUSH0 DUP4 PUSH20 0xFFFFFFFFFFFFFFFFFFFFFFFFFFFFFFFFFFFFFFFF AND PUSH20 0xFFFFFFFFFFFFFFFFFFFFFFFFFFFFFFFFFFFFFFFF AND DUP2 MSTORE PUSH1 0x20 ADD SWAP1 DUP2 MSTORE PUSH1 0x20 ADD PUSH0 KECCAK256 PUSH1 0x1 ADD PUSH0 PUSH2 0x100 EXP DUP2 SLOAD DUP2 PUSH1 0xFF MUL NOT AND SWAP1 DUP4 ISZERO ISZERO MUL OR SWAP1 SSTORE POP PUSH32 0x434EE15F55FF3AEEE926D0D2CDC10861189DFDC47305A9EA5D0504102C408515 DUP2 PUSH0 TIMESTAMP PUSH1 0x40 MLOAD PUSH2 0x429 SWAP4 SWAP3 SWAP2 SWAP1 PUSH2 0x103D JUMP JUMPDEST PUSH1 0x40 MLOAD DUP1 SWAP2 SUB SWAP1 LOG1 POP JUMP JUMPDEST PUSH1 0x1 PUSH1 0x20 MSTORE DUP2 PUSH0 MSTORE PUSH1 0x40 PUSH0 KECCAK256 DUP2 DUP2 SLOAD DUP2 LT PUSH2 0x44D JUMPI PUSH0 DUP1 REVERT JUMPDEST SWAP1 PUSH0 MSTORE PUSH1 0x20 PUSH0 KECCAK256 ADD PUSH0 SWAP2 POP SWAP2 POP SWAP1 SLOAD SWAP1 PUSH2 0x100 EXP SWAP1 DIV PUSH20 0xFFFFFFFFFFFFFFFFFFFFFFFFFFFFFFFFFFFFFFFF AND DUP2 JUMP JUMPDEST PUSH1 0x2 PUSH1 0x20 MSTORE DUP1 PUSH0 MSTORE PUSH1 0x40 PUSH0 KECCAK256 PUSH0 SWAP2 POP SWAP1 POP DUP1 PUSH0 ADD SLOAD SWAP1 DUP1 PUSH1 0x1 ADD PUSH0 SWAP1 SLOAD SWAP1 PUSH2 0x100 EXP SWAP1 DIV PUSH1 0xFF AND SWAP1 DUP1 PUSH1 0x2 ADD SLOAD SWAP1 POP DUP4 JUMP JUMPDEST PUSH2 0x4B6 PUSH2 0xAE8 JUMP JUMPDEST PUSH0 PUSH1 0x2 PUSH0 DUP4 PUSH20 0xFFFFFFFFFFFFFFFFFFFFFFFFFFFFFFFFFFFFFFFF AND PUSH20 0xFFFFFFFFFFFFFFFFFFFFFFFFFFFFFFFFFFFFFFFF AND DUP2 MSTORE PUSH1 0x20 ADD SWAP1 DUP2 MSTORE PUSH1 0x20 ADD PUSH0 KECCAK256 PUSH1 0x2 ADD SLOAD GT PUSH2 0x52F JUMPI PUSH1 0x40 MLOAD PUSH32 0xE87FEEFD00000000000000000000000000000000000000000000000000000000 DUP2 MSTORE PUSH1 0x4 ADD PUSH1 0x40 MLOAD DUP1 SWAP2 SUB SWAP1 REVERT JUMPDEST PUSH1 0x1 PUSH1 0x2 PUSH0 DUP4 PUSH20 0xFFFFFFFFFFFFFFFFFFFFFFFFFFFFFFFFFFFFFFFF AND PUSH20 0xFFFFFFFFFFFFFFFFFFFFFFFFFFFFFFFFFFFFFFFF AND DUP2 MSTORE PUSH1 0x20 ADD SWAP1 DUP2 MSTORE PUSH1 0x20 ADD PUSH0 KECCAK256 PUSH1 0x1 ADD PUSH0 PUSH2 0x100 EXP DUP2 SLOAD DUP2 PUSH1 0xFF MUL NOT AND SWAP1 DUP4 ISZERO ISZERO MUL OR SWAP1 SSTORE POP PUSH32 0x434EE15F55FF3AEEE926D0D2CDC10861189DFDC47305A9EA5D0504102C408515 DUP2 PUSH1 0x1 TIMESTAMP PUSH1 0x40 MLOAD PUSH2 0x5BB SWAP4 SWAP3 SWAP2 SWAP1 PUSH2 0x103D JUMP JUMPDEST PUSH1 0x40 MLOAD DUP1 SWAP2 SUB SWAP1 LOG1 POP JUMP JUMPDEST PUSH2 0x5CE PUSH2 0xAE8 JUMP JUMPDEST PUSH2 0x5D7 PUSH0 PUSH2 0xB6F JUMP JUMPDEST JUMP JUMPDEST PUSH0 PUSH0 PUSH0 SWAP1 SLOAD SWAP1 PUSH2 0x100 EXP SWAP1 DIV PUSH20 0xFFFFFFFFFFFFFFFFFFFFFFFFFFFFFFFFFFFFFFFF AND SWAP1 POP SWAP1 JUMP JUMPDEST PUSH2 0x608 PUSH2 0xAE8 JUMP JUMPDEST PUSH0 PUSH1 0x2 PUSH0 DUP5 PUSH20 0xFFFFFFFFFFFFFFFFFFFFFFFFFFFFFFFFFFFFFFFF AND PUSH20 0xFFFFFFFFFFFFFFFFFFFFFFFFFFFFFFFFFFFFFFFF AND DUP2 MSTORE PUSH1 0x20 ADD SWAP1 DUP2 MSTORE PUSH1 0x20 ADD PUSH0 KECCAK256 PUSH1 0x2 ADD SLOAD GT PUSH2 0x681 JUMPI PUSH1 0x40 MLOAD PUSH32 0xE87FEEFD00000000000000000000000000000000000000000000000000000000 DUP2 MSTORE PUSH1 0x4 ADD PUSH1 0x40 MLOAD DUP1 SWAP2 SUB SWAP1 REVERT JUMPDEST PUSH0 PUSH1 0x2 PUSH0 DUP5 PUSH20 0xFFFFFFFFFFFFFFFFFFFFFFFFFFFFFFFFFFFFFFFF AND PUSH20 0xFFFFFFFFFFFFFFFFFFFFFFFFFFFFFFFFFFFFFFFF AND DUP2 MSTORE PUSH1 0x20 ADD SWAP1 DUP2 MSTORE PUSH1 0x20 ADD PUSH0 KECCAK256 PUSH0 ADD SLOAD SWAP1 POP DUP2 PUSH1 0x2 PUSH0 DUP6 PUSH20 0xFFFFFFFFFFFFFFFFFFFFFFFFFFFFFFFFFFFFFFFF AND PUSH20 0xFFFFFFFFFFFFFFFFFFFFFFFFFFFFFFFFFFFFFFFF AND DUP2 MSTORE PUSH1 0x20 ADD SWAP1 DUP2 MSTORE PUSH1 0x20 ADD PUSH0 KECCAK256 PUSH0 ADD DUP2 SWAP1 SSTORE POP PUSH32 0xAE754CDE05A89E748DCEC68DDB7845DFA44D041F114D95BF8D37338B6E0C9A5D DUP4 DUP3 DUP5 TIMESTAMP PUSH1 0x40 MLOAD PUSH2 0x73D SWAP5 SWAP4 SWAP3 SWAP2 SWAP1 PUSH2 0x1072 JUMP JUMPDEST PUSH1 0x40 MLOAD DUP1 SWAP2 SUB SWAP1 LOG1 POP POP POP JUMP JUMPDEST PUSH0 PUSH0 PUSH1 0x2 PUSH0 DUP7 PUSH20 0xFFFFFFFFFFFFFFFFFFFFFFFFFFFFFFFFFFFFFFFF AND PUSH20 0xFFFFFFFFFFFFFFFFFFFFFFFFFFFFFFFFFFFFFFFF AND DUP2 MSTORE PUSH1 0x20 ADD SWAP1 DUP2 MSTORE PUSH1 0x20 ADD PUSH0 KECCAK256 PUSH1 0x40 MLOAD DUP1 PUSH1 0x60 ADD PUSH1 0x40 MSTORE SWAP1 DUP2 PUSH0 DUP3 ADD SLOAD DUP2 MSTORE PUSH1 0x20 ADD PUSH1 0x1 DUP3 ADD PUSH0 SWAP1 SLOAD SWAP1 PUSH2 0x100 EXP SWAP1 DIV PUSH1 0xFF AND ISZERO ISZERO ISZERO ISZERO DUP2 MSTORE PUSH1 0x20 ADD PUSH1 0x2 DUP3 ADD SLOAD DUP2 MSTORE POP POP SWAP1 POP DUP1 PUSH1 0x20 ADD MLOAD PUSH2 0x7FE JUMPI PUSH1 0x40 MLOAD PUSH32 0x4E00E51300000000000000000000000000000000000000000000000000000000 DUP2 MSTORE PUSH1 0x4 ADD PUSH1 0x40 MLOAD DUP1 SWAP2 SUB SWAP1 REVERT JUMPDEST DUP1 PUSH0 ADD MLOAD CALLVALUE LT ISZERO PUSH2 0x83B JUMPI PUSH1 0x40 MLOAD PUSH32 0xC1463A4000000000000000000000000000000000000000000000000000000000 DUP2 MSTORE PUSH1 0x4 ADD PUSH1 0x40 MLOAD DUP1 SWAP2 SUB SWAP1 REVERT JUMPDEST PUSH0 DUP2 PUSH1 0x40 ADD MLOAD GT PUSH2 0x878 JUMPI PUSH1 0x40 MLOAD PUSH32 0xE87FEEFD00000000000000000000000000000000000000000000000000000000 DUP2 MSTORE PUSH1 0x4 ADD PUSH1 0x40 MLOAD DUP1 SWAP2 SUB SWAP1 REVERT JUMPDEST PUSH0 PUSH2 0x882 DUP7 PUSH2 0xC30 JUMP JUMPDEST SWAP1 POP DUP1 PUSH20 0xFFFFFFFFFFFFFFFFFFFFFFFFFFFFFFFFFFFFFFFF AND PUSH4 0x439FAB91 DUP7 DUP7 PUSH1 0x40 MLOAD DUP4 PUSH4 0xFFFFFFFF AND PUSH1 0xE0 SHL DUP2 MSTORE PUSH1 0x4 ADD PUSH2 0x8BF SWAP3 SWAP2 SWAP1 PUSH2 0x110F JUMP JUMPDEST PUSH1 0x20 PUSH1 0x40 MLOAD DUP1 DUP4 SUB DUP2 PUSH0 DUP8 GAS CALL ISZERO DUP1 ISZERO PUSH2 0x8DB JUMPI RETURNDATASIZE PUSH0 PUSH0 RETURNDATACOPY RETURNDATASIZE PUSH0 REVERT JUMPDEST POP POP POP POP PUSH1 0x40 MLOAD RETURNDATASIZE PUSH1 0x1F NOT PUSH1 0x1F DUP3 ADD AND DUP3 ADD DUP1 PUSH1 0x40 MSTORE POP DUP2 ADD SWAP1 PUSH2 0x8FF SWAP2 SWAP1 PUSH2 0x1145 JUMP JUMPDEST PUSH2 0x935 JUMPI PUSH1 0x40 MLOAD PUSH32 0x19B991A800000000000000000000000000000000000000000000000000000000 DUP2 MSTORE PUSH1 0x4 ADD PUSH1 0x40 MLOAD DUP1 SWAP2 SUB SWAP1 REVERT JUMPDEST PUSH2 0x93D PUSH2 0x5D9 JUMP JUMPDEST PUSH20 0xFFFFFFFFFFFFFFFFFFFFFFFFFFFFFFFFFFFFFFFF AND PUSH2 0x8FC CALLVALUE SWAP1 DUP2 ISZERO MUL SWAP1 PUSH1 0x40 MLOAD PUSH0 PUSH1 0x40 MLOAD DUP1 DUP4 SUB DUP2 DUP6 DUP9 DUP9 CALL SWAP4 POP POP POP POP ISZERO DUP1 ISZERO PUSH2 0x97F JUMPI RETURNDATASIZE PUSH0 PUSH0 RETURNDATACOPY RETURNDATASIZE PUSH0 REVERT JUMPDEST POP PUSH1 0x1 PUSH0 CALLER PUSH20 0xFFFFFFFFFFFFFFFFFFFFFFFFFFFFFFFFFFFFFFFF AND PUSH20 0xFFFFFFFFFFFFFFFFFFFFFFFFFFFFFFFFFFFFFFFF AND DUP2 MSTORE PUSH1 0x20 ADD SWAP1 DUP2 MSTORE PUSH1 0x20 ADD PUSH0 KECCAK256 DUP2 SWAP1 DUP1 PUSH1 0x1 DUP2 SLOAD ADD DUP1 DUP3 SSTORE DUP1 SWAP2 POP POP PUSH1 0x1 SWAP1 SUB SWAP1 PUSH0 MSTORE PUSH1 0x20 PUSH0 KECCAK256 ADD PUSH0 SWAP1 SWAP2 SWAP1 SWAP2 SWAP1 SWAP2 PUSH2 0x100 EXP DUP2 SLOAD DUP2 PUSH20 0xFFFFFFFFFFFFFFFFFFFFFFFFFFFFFFFFFFFFFFFF MUL NOT AND SWAP1 DUP4 PUSH20 0xFFFFFFFFFFFFFFFFFFFFFFFFFFFFFFFFFFFFFFFF AND MUL OR SWAP1 SSTORE POP PUSH32 0x4335DEA2303BAFA4BCABF73562EA6CF86520C11CDA707391EAC6AFAF50C46AB8 CALLER DUP3 CALLVALUE TIMESTAMP PUSH1 0x40 MLOAD PUSH2 0xA50 SWAP5 SWAP4 SWAP3 SWAP2 SWAP1 PUSH2 0x1170 JUMP JUMPDEST PUSH1 0x40 MLOAD DUP1 SWAP2 SUB SWAP1 LOG1 DUP1 SWAP3 POP POP POP SWAP4 SWAP3 POP POP POP JUMP JUMPDEST PUSH2 0xA6C PUSH2 0xAE8 JUMP JUMPDEST PUSH0 PUSH20 0xFFFFFFFFFFFFFFFFFFFFFFFFFFFFFFFFFFFFFFFF AND DUP2 PUSH20 0xFFFFFFFFFFFFFFFFFFFFFFFFFFFFFFFFFFFFFFFF AND SUB PUSH2 0xADC JUMPI PUSH0 PUSH1 0x40 MLOAD PUSH32 0x1E4FBDF700000000000000000000000000000000000000000000000000000000 DUP2 MSTORE PUSH1 0x4 ADD PUSH2 0xAD3 SWAP2 SWAP1 PUSH2 0xED0 JUMP JUMPDEST PUSH1 0x40 MLOAD DUP1 SWAP2 SUB SWAP1 REVERT JUMPDEST PUSH2 0xAE5 DUP2 PUSH2 0xB6F JUMP JUMPDEST POP JUMP JUMPDEST PUSH2 0xAF0 PUSH2 0xC42 JUMP JUMPDEST PUSH20 0xFFFFFFFFFFFFFFFFFFFFFFFFFFFFFFFFFFFFFFFF AND PUSH2 0xB0E PUSH2 0x5D9 JUMP JUMPDEST PUSH20 0xFFFFFFFFFFFFFFFFFFFFFFFFFFFFFFFFFFFFFFFF AND EQ PUSH2 0xB6D JUMPI PUSH2 0xB31 PUSH2 0xC42 JUMP JUMPDEST PUSH1 0x40 MLOAD PUSH32 0x118CDAA700000000000000000000000000000000000000000000000000000000 DUP2 MSTORE PUSH1 0x4 ADD PUSH2 0xB64 SWAP2 SWAP1 PUSH2 0xED0 JUMP JUMPDEST PUSH1 0x40 MLOAD DUP1 SWAP2 SUB SWAP1 REVERT JUMPDEST JUMP JUMPDEST PUSH0 PUSH0 PUSH0 SWAP1 SLOAD SWAP1 PUSH2 0x100 EXP SWAP1 DIV PUSH20 0xFFFFFFFFFFFFFFFFFFFFFFFFFFFFFFFFFFFFFFFF AND SWAP1 POP DUP2 PUSH0 PUSH0 PUSH2 0x100 EXP DUP2 SLOAD DUP2 PUSH20 0xFFFFFFFFFFFFFFFFFFFFFFFFFFFFFFFFFFFFFFFF MUL NOT AND SWAP1 DUP4 PUSH20 0xFFFFFFFFFFFFFFFFFFFFFFFFFFFFFFFFFFFFFFFF AND MUL OR SWAP1 SSTORE POP DUP2 PUSH20 0xFFFFFFFFFFFFFFFFFFFFFFFFFFFFFFFFFFFFFFFF AND DUP2 PUSH20 0xFFFFFFFFFFFFFFFFFFFFFFFFFFFFFFFFFFFFFFFF AND PUSH32 0x8BE0079C531659141344CD1FD0A4F28419497F9722A3DAAFE3B4186F6B6457E0 PUSH1 0x40 MLOAD PUSH1 0x40 MLOAD DUP1 SWAP2 SUB SWAP1 LOG3 POP POP JUMP JUMPDEST PUSH0 PUSH2 0xC3B DUP3 PUSH0 PUSH2 0xC49 JUMP JUMPDEST SWAP1 POP SWAP2 SWAP1 POP JUMP JUMPDEST PUSH0 CALLER SWAP1 POP SWAP1 JUMP JUMPDEST PUSH0 DUP2 SELFBALANCE LT ISZERO PUSH2 0xC91 JUMPI SELFBALANCE DUP3 PUSH1 0x40 MLOAD PUSH32 0xCF47918100000000000000000000000000000000000000000000000000000000 DUP2 MSTORE PUSH1 0x4 ADD PUSH2 0xC88 SWAP3 SWAP2 SWAP1 PUSH2 0x11B3 JUMP JUMPDEST PUSH1 0x40 MLOAD DUP1 SWAP2 SUB SWAP1 REVERT JUMPDEST PUSH23 0x3D602D80600A3D3981F3363D3D373D3D3D363D73000000 DUP4 PUSH1 0x60 SHL PUSH1 0xE8 SHR OR PUSH0 MSTORE PUSH15 0x5AF43D82803E903D91602B57FD5BF3 DUP4 PUSH1 0x78 SHL OR PUSH1 0x20 MSTORE PUSH1 0x37 PUSH1 0x9 DUP4 CREATE SWAP1 POP PUSH0 PUSH20 0xFFFFFFFFFFFFFFFFFFFFFFFFFFFFFFFFFFFFFFFF AND DUP2 PUSH20 0xFFFFFFFFFFFFFFFFFFFFFFFFFFFFFFFFFFFFFFFF AND SUB PUSH2 0xD38 JUMPI PUSH1 0x40 MLOAD PUSH32 0xB06EBF3D00000000000000000000000000000000000000000000000000000000 DUP2 MSTORE PUSH1 0x4 ADD PUSH1 0x40 MLOAD DUP1 SWAP2 SUB SWAP1 REVERT JUMPDEST SWAP3 SWAP2 POP POP JUMP JUMPDEST PUSH0 PUSH0 REVERT JUMPDEST PUSH0 PUSH0 REVERT JUMPDEST PUSH0 PUSH20 0xFFFFFFFFFFFFFFFFFFFFFFFFFFFFFFFFFFFFFFFF DUP3 AND SWAP1 POP SWAP2 SWAP1 POP JUMP JUMPDEST PUSH0 PUSH2 0xD6F DUP3 PUSH2 0xD46 JUMP JUMPDEST SWAP1 POP SWAP2 SWAP1 POP JUMP JUMPDEST PUSH2 0xD7F DUP2 PUSH2 0xD65 JUMP JUMPDEST DUP2 EQ PUSH2 0xD89 JUMPI PUSH0 PUSH0 REVERT JUMPDEST POP JUMP JUMPDEST PUSH0 DUP2 CALLDATALOAD SWAP1 POP PUSH2 0xD9A DUP2 PUSH2 0xD76 JUMP JUMPDEST SWAP3 SWAP2 POP POP JUMP JUMPDEST PUSH0 DUP2 SWAP1 POP SWAP2 SWAP1 POP JUMP JUMPDEST PUSH2 0xDB2 DUP2 PUSH2 0xDA0 JUMP JUMPDEST DUP2 EQ PUSH2 0xDBC JUMPI PUSH0 PUSH0 REVERT JUMPDEST POP JUMP JUMPDEST PUSH0 DUP2 CALLDATALOAD SWAP1 POP PUSH2 0xDCD DUP2 PUSH2 0xDA9 JUMP JUMPDEST SWAP3 SWAP2 POP POP JUMP JUMPDEST PUSH0 DUP2 ISZERO ISZERO SWAP1 POP SWAP2 SWAP1 POP JUMP JUMPDEST PUSH2 0xDE7 DUP2 PUSH2 0xDD3 JUMP JUMPDEST DUP2 EQ PUSH2 0xDF1 JUMPI PUSH0 PUSH0 REVERT JUMPDEST POP JUMP JUMPDEST PUSH0 DUP2 CALLDATALOAD SWAP1 POP PUSH2 0xE02 DUP2 PUSH2 0xDDE JUMP JUMPDEST SWAP3 SWAP2 POP POP JUMP JUMPDEST PUSH0 PUSH0 PUSH0 PUSH1 0x60 DUP5 DUP7 SUB SLT ISZERO PUSH2 0xE1F JUMPI PUSH2 0xE1E PUSH2 0xD3E JUMP JUMPDEST JUMPDEST PUSH0 PUSH2 0xE2C DUP7 DUP3 DUP8 ADD PUSH2 0xD8C JUMP JUMPDEST SWAP4 POP POP PUSH1 0x20 PUSH2 0xE3D DUP7 DUP3 DUP8 ADD PUSH2 0xDBF JUMP JUMPDEST SWAP3 POP POP PUSH1 0x40 PUSH2 0xE4E DUP7 DUP3 DUP8 ADD PUSH2 0xDF4 JUMP JUMPDEST SWAP2 POP POP SWAP3 POP SWAP3 POP SWAP3 JUMP JUMPDEST PUSH0 PUSH1 0x20 DUP3 DUP5 SUB SLT ISZERO PUSH2 0xE6D JUMPI PUSH2 0xE6C PUSH2 0xD3E JUMP JUMPDEST JUMPDEST PUSH0 PUSH2 0xE7A DUP5 DUP3 DUP6 ADD PUSH2 0xD8C JUMP JUMPDEST SWAP2 POP POP SWAP3 SWAP2 POP POP JUMP JUMPDEST PUSH0 PUSH0 PUSH1 0x40 DUP4 DUP6 SUB SLT ISZERO PUSH2 0xE99 JUMPI PUSH2 0xE98 PUSH2 0xD3E JUMP JUMPDEST JUMPDEST PUSH0 PUSH2 0xEA6 DUP6 DUP3 DUP7 ADD PUSH2 0xD8C JUMP JUMPDEST SWAP3 POP POP PUSH1 0x20 PUSH2 0xEB7 DUP6 DUP3 DUP7 ADD PUSH2 0xDBF JUMP JUMPDEST SWAP2 POP POP SWAP3 POP SWAP3 SWAP1 POP JUMP JUMPDEST PUSH2 0xECA DUP2 PUSH2 0xD65 JUMP JUMPDEST DUP3 MSTORE POP POP JUMP JUMPDEST PUSH0 PUSH1 0x20 DUP3 ADD SWAP1 POP PUSH2 0xEE3 PUSH0 DUP4 ADD DUP5 PUSH2 0xEC1 JUMP JUMPDEST SWAP3 SWAP2 POP POP JUMP JUMPDEST PUSH2 0xEF2 DUP2 PUSH2 0xDA0 JUMP JUMPDEST DUP3 MSTORE POP POP JUMP JUMPDEST PUSH2 0xF01 DUP2 PUSH2 0xDD3 JUMP JUMPDEST DUP3 MSTORE POP POP JUMP JUMPDEST PUSH0 PUSH1 0x60 DUP3 ADD SWAP1 POP PUSH2 0xF1A PUSH0 DUP4 ADD DUP7 PUSH2 0xEE9 JUMP JUMPDEST PUSH2 0xF27 PUSH1 0x20 DUP4 ADD DUP6 PUSH2 0xEF8 JUMP JUMPDEST PUSH2 0xF34 PUSH1 0x40 DUP4 ADD DUP5 PUSH2 0xEE9 JUMP JUMPDEST SWAP5 SWAP4 POP POP POP POP JUMP JUMPDEST PUSH0 PUSH0 REVERT JUMPDEST PUSH0 PUSH0 REVERT JUMPDEST PUSH0 PUSH0 REVERT JUMPDEST PUSH0 PUSH0 DUP4 PUSH1 0x1F DUP5 ADD SLT PUSH2 0xF5D JUMPI PUSH2 0xF5C PUSH2 0xF3C JUMP JUMPDEST JUMPDEST DUP3 CALLDATALOAD SWAP1 POP PUSH8 0xFFFFFFFFFFFFFFFF DUP2 GT ISZERO PUSH2 0xF7A JUMPI PUSH2 0xF79 PUSH2 0xF40 JUMP JUMPDEST JUMPDEST PUSH1 0x20 DUP4 ADD SWAP2 POP DUP4 PUSH1 0x1 DUP3 MUL DUP4 ADD GT ISZERO PUSH2 0xF96 JUMPI PUSH2 0xF95 PUSH2 0xF44 JUMP JUMPDEST JUMPDEST SWAP3 POP SWAP3 SWAP1 POP JUMP JUMPDEST PUSH0 PUSH0 PUSH0 PUSH1 0x40 DUP5 DUP7 SUB SLT ISZERO PUSH2 0xFB4 JUMPI PUSH2 0xFB3 PUSH2 0xD3E JUMP JUMPDEST JUMPDEST PUSH0 PUSH2 0xFC1 DUP7 DUP3 DUP8 ADD PUSH2 0xD8C JUMP JUMPDEST SWAP4 POP POP PUSH1 0x20 DUP5 ADD CALLDATALOAD PUSH8 0xFFFFFFFFFFFFFFFF DUP2 GT ISZERO PUSH2 0xFE2 JUMPI PUSH2 0xFE1 PUSH2 0xD42 JUMP JUMPDEST JUMPDEST PUSH2 0xFEE DUP7 DUP3 DUP8 ADD PUSH2 0xF48 JUMP JUMPDEST SWAP3 POP SWAP3 POP POP SWAP3 POP SWAP3 POP SWAP3 JUMP JUMPDEST PUSH0 PUSH1 0x80 DUP3 ADD SWAP1 POP PUSH2 0x100D PUSH0 DUP4 ADD DUP8 PUSH2 0xEC1 JUMP JUMPDEST PUSH2 0x101A PUSH1 0x20 DUP4 ADD DUP7 PUSH2 0xEE9 JUMP JUMPDEST PUSH2 0x1027 PUSH1 0x40 DUP4 ADD DUP6 PUSH2 0xEF8 JUMP JUMPDEST PUSH2 0x1034 PUSH1 0x60 DUP4 ADD DUP5 PUSH2 0xEE9 JUMP JUMPDEST SWAP6 SWAP5 POP POP POP POP POP JUMP JUMPDEST PUSH0 PUSH1 0x60 DUP3 ADD SWAP1 POP PUSH2 0x1050 PUSH0 DUP4 ADD DUP7 PUSH2 0xEC1 JUMP JUMPDEST PUSH2 0x105D PUSH1 0x20 DUP4 ADD DUP6 PUSH2 0xEF8 JUMP JUMPDEST PUSH2 0x106A PUSH1 0x40 DUP4 ADD DUP5 PUSH2 0xEE9 JUMP JUMPDEST SWAP5 SWAP4 POP POP POP POP JUMP JUMPDEST PUSH0 PUSH1 0x80 DUP3 ADD SWAP1 POP PUSH2 0x1085 PUSH0 DUP4 ADD DUP8 PUSH2 0xEC1 JUMP JUMPDEST PUSH2 0x1092 PUSH1 0x20 DUP4 ADD DUP7 PUSH2 0xEE9 JUMP JUMPDEST PUSH2 0x109F PUSH1 0x40 DUP4 ADD DUP6 PUSH2 0xEE9 JUMP JUMPDEST PUSH2 0x10AC PUSH1 0x60 DUP4 ADD DUP5 PUSH2 0xEE9 JUMP JUMPDEST SWAP6 SWAP5 POP POP POP POP POP JUMP JUMPDEST PUSH0 DUP3 DUP3 MSTORE PUSH1 0x20 DUP3 ADD SWAP1 POP SWAP3 SWAP2 POP POP JUMP JUMPDEST DUP3 DUP2 DUP4 CALLDATACOPY PUSH0 DUP4 DUP4 ADD MSTORE POP POP POP JUMP JUMPDEST PUSH0 PUSH1 0x1F NOT PUSH1 0x1F DUP4 ADD AND SWAP1 POP SWAP2 SWAP1 POP JUMP JUMPDEST PUSH0 PUSH2 0x10EE DUP4 DUP6 PUSH2 0x10B5 JUMP JUMPDEST SWAP4 POP PUSH2 0x10FB DUP4 DUP6 DUP5 PUSH2 0x10C5 JUMP JUMPDEST PUSH2 0x1104 DUP4 PUSH2 0x10D3 JUMP JUMPDEST DUP5 ADD SWAP1 POP SWAP4 SWAP3 POP POP POP JUMP JUMPDEST PUSH0 PUSH1 0x20 DUP3 ADD SWAP1 POP DUP2 DUP2 SUB PUSH0 DUP4 ADD MSTORE PUSH2 0x1128 DUP2 DUP5 DUP7 PUSH2 0x10E3 JUMP JUMPDEST SWAP1 POP SWAP4 SWAP3 POP POP POP JUMP JUMPDEST PUSH0 DUP2 MLOAD SWAP1 POP PUSH2 0x113F DUP2 PUSH2 0xDDE JUMP JUMPDEST SWAP3 SWAP2 POP POP JUMP JUMPDEST PUSH0 PUSH1 0x20 DUP3 DUP5 SUB SLT ISZERO PUSH2 0x115A JUMPI PUSH2 0x1159 PUSH2 0xD3E JUMP JUMPDEST JUMPDEST PUSH0 PUSH2 0x1167 DUP5 DUP3 DUP6 ADD PUSH2 0x1131 JUMP JUMPDEST SWAP2 POP POP SWAP3 SWAP2 POP POP JUMP JUMPDEST PUSH0 PUSH1 0x80 DUP3 ADD SWAP1 POP PUSH2 0x1183 PUSH0 DUP4 ADD DUP8 PUSH2 0xEC1 JUMP JUMPDEST PUSH2 0x1190 PUSH1 0x20 DUP4 ADD DUP7 PUSH2 0xEC1 JUMP JUMPDEST PUSH2 0x119D PUSH1 0x40 DUP4 ADD DUP6 PUSH2 0xEE9 JUMP JUMPDEST PUSH2 0x11AA PUSH1 0x60 DUP4 ADD DUP5 PUSH2 0xEE9 JUMP JUMPDEST SWAP6 SWAP5 POP POP POP POP POP JUMP JUMPDEST PUSH0 PUSH1 0x40 DUP3 ADD SWAP1 POP PUSH2 0x11C6 PUSH0 DUP4 ADD DUP6 PUSH2 0xEE9 JUMP JUMPDEST PUSH2 0x11D3 PUSH1 0x20 DUP4 ADD DUP5 PUSH2 0xEE9 JUMP JUMPDEST SWAP4 SWAP3 POP POP POP JUMP INVALID LOG2 PUSH5 0x6970667358 0x22 SLT KECCAK256 0xF7 MUL EXTCODESIZE 0xDD 0xB3 CALLER SWAP4 DUP12 DUP16 DUP7 0xDB 0xB8 0x2A ADDMOD DUP4 SWAP2 DUP15 RJUMPI 0x1824 BLOCKHASH EXTCALL PUSH27 0xDA3A189812C2C533FC64736F6C634300081D003300000000000000 "
				},
				"gasEstimates": {
					"creation": {
						"codeDepositCost": "924800",
						"executionCost": "infinite",
						"totalCost": "infinite"
					},
					"external": {
						"activateContract(address)": "infinite",
						"addNewContract(address,uint256,bool)": "infinite",
						"contractsData(address)": "infinite",
						"deactivateContract(address)": "infinite",
						"deploy(address,bytes)": "infinite",
						"deployedContracts(address,uint256)": "infinite",
						"owner()": "2536",
						"renounceOwnership()": "infinite",
						"transferOwnership(address)": "infinite",
						"updateFee(address,uint256)": "infinite"
					}
				},
				"methodIdentifiers": {
					"activateContract(address)": "670cec37",
					"addNewContract(address,uint256,bool)": "0d159b3f",
					"contractsData(address)": "4d580453",
					"deactivateContract(address)": "31a76535",
					"deploy(address,bytes)": "e97fac05",
					"deployedContracts(address,uint256)": "45967555",
					"owner()": "8da5cb5b",
					"renounceOwnership()": "715018a6",
					"transferOwnership(address)": "f2fde38b",
					"updateFee(address,uint256)": "94be7197"
				}
			},
			"storageLayout": {
				"storage": [
					{
						"astId": 8,
						"contract": "Factory/DeployManager.sol:DeployManager",
						"label": "_owner",
						"offset": 0,
						"slot": "0",
						"type": "t_address"
					},
					{
						"astId": 762,
						"contract": "Factory/DeployManager.sol:DeployManager",
						"label": "deployedContracts",
						"offset": 0,
						"slot": "1",
						"type": "t_mapping(t_address,t_array(t_address)dyn_storage)"
					},
					{
						"astId": 767,
						"contract": "Factory/DeployManager.sol:DeployManager",
						"label": "contractsData",
						"offset": 0,
						"slot": "2",
						"type": "t_mapping(t_address,t_struct(ContractInfo)757_storage)"
					}
				],
				"types": {
					"t_address": {
						"encoding": "inplace",
						"label": "address",
						"numberOfBytes": "20"
					},
					"t_array(t_address)dyn_storage": {
						"base": "t_address",
						"encoding": "dynamic_array",
						"label": "address[]",
						"numberOfBytes": "32"
					},
					"t_bool": {
						"encoding": "inplace",
						"label": "bool",
						"numberOfBytes": "1"
					},
					"t_mapping(t_address,t_array(t_address)dyn_storage)": {
						"encoding": "mapping",
						"key": "t_address",
						"label": "mapping(address => address[])",
						"numberOfBytes": "32",
						"value": "t_array(t_address)dyn_storage"
					},
					"t_mapping(t_address,t_struct(ContractInfo)757_storage)": {
						"encoding": "mapping",
						"key": "t_address",
						"label": "mapping(address => struct DeployManager.ContractInfo)",
						"numberOfBytes": "32",
						"value": "t_struct(ContractInfo)757_storage"
					},
					"t_struct(ContractInfo)757_storage": {
						"encoding": "inplace",
						"label": "struct DeployManager.ContractInfo",
						"members": [
							{
								"astId": 752,
								"contract": "Factory/DeployManager.sol:DeployManager",
								"label": "fee",
								"offset": 0,
								"slot": "0",
								"type": "t_uint256"
							},
							{
								"astId": 754,
								"contract": "Factory/DeployManager.sol:DeployManager",
								"label": "isActive",
								"offset": 0,
								"slot": "1",
								"type": "t_bool"
							},
							{
								"astId": 756,
								"contract": "Factory/DeployManager.sol:DeployManager",
								"label": "registredAt",
								"offset": 0,
								"slot": "2",
								"type": "t_uint256"
							}
						],
						"numberOfBytes": "96"
					},
					"t_uint256": {
						"encoding": "inplace",
						"label": "uint256",
						"numberOfBytes": "32"
					}
				}
			},
			"userdoc": {
				"kind": "user",
				"methods": {},
				"version": 1
			}
		}
	}
}